{
  "_format": "hh-sol-artifact-1",
  "contractName": "Ph101ppDailyPhoto",
  "sourceName": "contracts/Ph101ppDailyPhoto.sol",
  "abi": [
    {
      "inputs": [
        {
          "internalType": "string",
          "name": "newProxyUri",
          "type": "string"
        },
        {
          "internalType": "address[]",
          "name": "initialHolders",
          "type": "address[]"
        }
      ],
      "stateMutability": "nonpayable",
      "type": "constructor"
    },
    {
      "inputs": [
        {
          "internalType": "address",
          "name": "operator",
          "type": "address"
        }
      ],
      "name": "OperatorNotAllowed",
      "type": "error"
    },
    {
      "anonymous": false,
      "inputs": [
        {
          "indexed": true,
          "internalType": "address",
          "name": "account",
          "type": "address"
        },
        {
          "indexed": true,
          "internalType": "address",
          "name": "operator",
          "type": "address"
        },
        {
          "indexed": false,
          "internalType": "bool",
          "name": "approved",
          "type": "bool"
        }
      ],
      "name": "ApprovalForAll",
      "type": "event"
    },
    {
      "anonymous": false,
      "inputs": [
        {
          "indexed": true,
          "internalType": "address",
          "name": "previousOwner",
          "type": "address"
        },
        {
          "indexed": true,
          "internalType": "address",
          "name": "newOwner",
          "type": "address"
        }
      ],
      "name": "OwnershipTransferred",
      "type": "event"
    },
    {
      "anonymous": false,
      "inputs": [
        {
          "indexed": false,
          "internalType": "address",
          "name": "account",
          "type": "address"
        }
      ],
      "name": "Paused",
      "type": "event"
    },
    {
      "anonymous": false,
      "inputs": [
        {
          "indexed": true,
          "internalType": "address",
          "name": "operator",
          "type": "address"
        },
        {
          "indexed": true,
          "internalType": "address",
          "name": "from",
          "type": "address"
        },
        {
          "indexed": true,
          "internalType": "address",
          "name": "to",
          "type": "address"
        },
        {
          "indexed": false,
          "internalType": "uint256[]",
          "name": "ids",
          "type": "uint256[]"
        },
        {
          "indexed": false,
          "internalType": "uint256[]",
          "name": "values",
          "type": "uint256[]"
        }
      ],
      "name": "TransferBatch",
      "type": "event"
    },
    {
      "anonymous": false,
      "inputs": [
        {
          "indexed": true,
          "internalType": "address",
          "name": "operator",
          "type": "address"
        },
        {
          "indexed": true,
          "internalType": "address",
          "name": "from",
          "type": "address"
        },
        {
          "indexed": true,
          "internalType": "address",
          "name": "to",
          "type": "address"
        },
        {
          "indexed": false,
          "internalType": "uint256",
          "name": "id",
          "type": "uint256"
        },
        {
          "indexed": false,
          "internalType": "uint256",
          "name": "value",
          "type": "uint256"
        }
      ],
      "name": "TransferSingle",
      "type": "event"
    },
    {
      "anonymous": false,
      "inputs": [
        {
          "indexed": false,
          "internalType": "string",
          "name": "value",
          "type": "string"
        },
        {
          "indexed": true,
          "internalType": "uint256",
          "name": "id",
          "type": "uint256"
        }
      ],
      "name": "URI",
      "type": "event"
    },
    {
      "anonymous": false,
      "inputs": [
        {
          "indexed": false,
          "internalType": "address",
          "name": "account",
          "type": "address"
        }
      ],
      "name": "Unpaused",
      "type": "event"
    },
    {
      "inputs": [],
      "name": "CLAIM_TOKEN_ID",
      "outputs": [
        {
          "internalType": "uint256",
          "name": "",
          "type": "uint256"
        }
      ],
      "stateMutability": "view",
      "type": "function"
    },
    {
      "inputs": [],
      "name": "START_DATE",
      "outputs": [
        {
          "internalType": "uint256",
          "name": "",
          "type": "uint256"
        }
      ],
      "stateMutability": "view",
      "type": "function"
    },
    {
      "inputs": [
        {
          "internalType": "address",
          "name": "account",
          "type": "address"
        },
        {
          "internalType": "uint256",
          "name": "id",
          "type": "uint256"
        }
      ],
      "name": "balanceOf",
      "outputs": [
        {
          "internalType": "uint256",
          "name": "",
          "type": "uint256"
        }
      ],
      "stateMutability": "view",
      "type": "function"
    },
    {
      "inputs": [
        {
          "internalType": "address[]",
          "name": "accounts",
          "type": "address[]"
        },
        {
          "internalType": "uint256[]",
          "name": "ids",
          "type": "uint256[]"
        }
      ],
      "name": "balanceOfBatch",
      "outputs": [
        {
          "internalType": "uint256[]",
          "name": "",
          "type": "uint256[]"
        }
      ],
      "stateMutability": "view",
      "type": "function"
    },
    {
      "inputs": [
        {
          "internalType": "uint256",
          "name": "tokenId",
          "type": "uint256"
        }
      ],
      "name": "exists",
      "outputs": [
        {
          "internalType": "bool",
          "name": "",
          "type": "bool"
        }
      ],
      "stateMutability": "view",
      "type": "function"
    },
    {
      "inputs": [
        {
          "internalType": "uint256",
          "name": "numberOfTokens",
          "type": "uint256"
        }
      ],
      "name": "getMintRangeInput",
      "outputs": [
        {
          "components": [
            {
              "internalType": "uint256[]",
              "name": "ids",
              "type": "uint256[]"
            },
            {
              "internalType": "uint256[][]",
              "name": "amounts",
              "type": "uint256[][]"
            }
          ],
          "internalType": "struct ERC1155MintRange.MintRangeInput",
          "name": "",
          "type": "tuple"
        },
        {
          "internalType": "bytes32",
          "name": "",
          "type": "bytes32"
        }
      ],
      "stateMutability": "view",
      "type": "function"
    },
    {
      "inputs": [],
      "name": "initialHolderRanges",
      "outputs": [
        {
          "internalType": "address[][]",
          "name": "holders",
          "type": "address[][]"
        },
        {
          "internalType": "uint256[]",
          "name": "ranges",
          "type": "uint256[]"
        }
      ],
      "stateMutability": "view",
      "type": "function"
    },
    {
      "inputs": [
        {
          "internalType": "uint256",
          "name": "tokenId",
          "type": "uint256"
        }
      ],
      "name": "initialHolders",
      "outputs": [
        {
          "internalType": "address[]",
          "name": "",
          "type": "address[]"
        }
      ],
      "stateMutability": "view",
      "type": "function"
    },
    {
      "inputs": [
        {
          "internalType": "uint256",
          "name": "tokenId",
          "type": "uint256"
        }
      ],
      "name": "initialSupply",
      "outputs": [
        {
          "internalType": "uint256[]",
          "name": "",
          "type": "uint256[]"
        }
      ],
      "stateMutability": "view",
      "type": "function"
    },
    {
      "inputs": [],
      "name": "initialSupplyRanges",
      "outputs": [
        {
          "internalType": "uint256[][]",
          "name": "supplies",
          "type": "uint256[][]"
        },
        {
          "internalType": "uint256[]",
          "name": "ranges",
          "type": "uint256[]"
        }
      ],
      "stateMutability": "view",
      "type": "function"
    },
    {
      "inputs": [
        {
          "internalType": "address",
          "name": "account",
          "type": "address"
        },
        {
          "internalType": "address",
          "name": "operator",
          "type": "address"
        }
      ],
      "name": "isApprovedForAll",
      "outputs": [
        {
          "internalType": "bool",
          "name": "",
          "type": "bool"
        }
      ],
      "stateMutability": "view",
      "type": "function"
    },
    {
      "inputs": [
        {
          "internalType": "address",
          "name": "",
          "type": "address"
        },
        {
          "internalType": "uint256",
          "name": "",
          "type": "uint256"
        }
      ],
      "name": "isBalanceInitialized",
      "outputs": [
        {
          "internalType": "bool",
          "name": "",
          "type": "bool"
        }
      ],
      "stateMutability": "view",
      "type": "function"
    },
    {
      "inputs": [
        {
          "internalType": "address",
          "name": "",
          "type": "address"
        }
      ],
      "name": "isHolderAddress",
      "outputs": [
        {
          "internalType": "bool",
          "name": "",
          "type": "bool"
        }
      ],
      "stateMutability": "view",
      "type": "function"
    },
    {
      "inputs": [
        {
          "internalType": "address",
          "name": "",
          "type": "address"
        }
      ],
      "name": "isInitialHolderAddress",
      "outputs": [
        {
          "internalType": "bool",
          "name": "",
          "type": "bool"
        }
      ],
      "stateMutability": "view",
      "type": "function"
    },
    {
      "inputs": [],
      "name": "isInitialHoldersRangeUpdatePermanentlyDisabled",
      "outputs": [
        {
          "internalType": "bool",
          "name": "",
          "type": "bool"
        }
      ],
      "stateMutability": "view",
      "type": "function"
    },
    {
      "inputs": [
        {
          "internalType": "uint256",
          "name": "",
          "type": "uint256"
        }
      ],
      "name": "isManualMint",
      "outputs": [
        {
          "internalType": "bool",
          "name": "",
          "type": "bool"
        }
      ],
      "stateMutability": "view",
      "type": "function"
    },
    {
      "inputs": [],
      "name": "isOperatorFilterRegistryAddressPermanentlyFrozen",
      "outputs": [
        {
          "internalType": "bool",
          "name": "",
          "type": "bool"
        }
      ],
      "stateMutability": "view",
      "type": "function"
    },
    {
      "inputs": [],
      "name": "isTransferEventListenerAddressPermanentlyFrozen",
      "outputs": [
        {
          "internalType": "bool",
          "name": "",
          "type": "bool"
        }
      ],
      "stateMutability": "view",
      "type": "function"
    },
    {
      "inputs": [],
      "name": "isZeroLocked",
      "outputs": [
        {
          "internalType": "bool",
          "name": "",
          "type": "bool"
        }
      ],
      "stateMutability": "view",
      "type": "function"
    },
    {
      "inputs": [],
      "name": "isZeroMinted",
      "outputs": [
        {
          "internalType": "bool",
          "name": "",
          "type": "bool"
        }
      ],
      "stateMutability": "view",
      "type": "function"
    },
    {
      "inputs": [],
      "name": "lastRangeTokenIdMinted",
      "outputs": [
        {
          "internalType": "uint256",
          "name": "",
          "type": "uint256"
        }
      ],
      "stateMutability": "view",
      "type": "function"
    },
    {
      "inputs": [],
      "name": "lastRangeTokenIdWithLockedInitialHolders",
      "outputs": [
        {
          "internalType": "uint256",
          "name": "",
          "type": "uint256"
        }
      ],
      "stateMutability": "view",
      "type": "function"
    },
    {
      "inputs": [],
      "name": "lastRangeTokenIdWithPermanentUri",
      "outputs": [
        {
          "internalType": "uint256",
          "name": "",
          "type": "uint256"
        }
      ],
      "stateMutability": "view",
      "type": "function"
    },
    {
      "inputs": [
        {
          "internalType": "address",
          "name": "to",
          "type": "address"
        },
        {
          "internalType": "uint256",
          "name": "amount",
          "type": "uint256"
        },
        {
          "internalType": "bytes",
          "name": "data",
          "type": "bytes"
        }
      ],
      "name": "mintClaims",
      "outputs": [],
      "stateMutability": "nonpayable",
      "type": "function"
    },
    {
      "inputs": [
        {
          "components": [
            {
              "internalType": "uint256[]",
              "name": "ids",
              "type": "uint256[]"
            },
            {
              "internalType": "uint256[][]",
              "name": "amounts",
              "type": "uint256[][]"
            }
          ],
          "internalType": "struct ERC1155MintRange.MintRangeInput",
          "name": "input",
          "type": "tuple"
        },
        {
          "internalType": "bytes32",
          "name": "checksum",
          "type": "bytes32"
        }
      ],
      "name": "mintPhotos",
      "outputs": [],
      "stateMutability": "nonpayable",
      "type": "function"
    },
    {
      "inputs": [],
      "name": "operatorFilterRegistryAddress",
      "outputs": [
        {
          "internalType": "address",
          "name": "",
          "type": "address"
        }
      ],
      "stateMutability": "view",
      "type": "function"
    },
    {
      "inputs": [],
      "name": "owner",
      "outputs": [
        {
          "internalType": "address",
          "name": "",
          "type": "address"
        }
      ],
      "stateMutability": "view",
      "type": "function"
    },
    {
      "inputs": [],
      "name": "pause",
      "outputs": [],
      "stateMutability": "nonpayable",
      "type": "function"
    },
    {
      "inputs": [],
      "name": "paused",
      "outputs": [
        {
          "internalType": "bool",
          "name": "",
          "type": "bool"
        }
      ],
      "stateMutability": "view",
      "type": "function"
    },
    {
      "inputs": [
        {
          "internalType": "uint256",
          "name": "tokenId",
          "type": "uint256"
        }
      ],
      "name": "period",
      "outputs": [
        {
          "internalType": "string",
          "name": "",
          "type": "string"
        }
      ],
      "stateMutability": "view",
      "type": "function"
    },
    {
      "inputs": [],
      "name": "periodRanges",
      "outputs": [
        {
          "internalType": "string[]",
          "name": "periods",
          "type": "string[]"
        },
        {
          "internalType": "uint256[]",
          "name": "ranges",
          "type": "uint256[]"
        }
      ],
      "stateMutability": "view",
      "type": "function"
    },
    {
      "inputs": [],
      "name": "permanentBaseUri",
      "outputs": [
        {
          "internalType": "string",
          "name": "",
          "type": "string"
        }
      ],
      "stateMutability": "view",
      "type": "function"
    },
    {
      "inputs": [],
      "name": "permanentBaseUriRanges",
      "outputs": [
        {
          "internalType": "string[]",
          "name": "permanentBaseUris",
          "type": "string[]"
        },
        {
          "internalType": "uint256[]",
          "name": "ranges",
          "type": "uint256[]"
        }
      ],
      "stateMutability": "view",
      "type": "function"
    },
    {
      "inputs": [],
      "name": "permanentlyDisableInitialHoldersRangeUpdate",
      "outputs": [],
      "stateMutability": "nonpayable",
      "type": "function"
    },
    {
      "inputs": [],
      "name": "permanentlyFreezeOperatorFilterRegistryAddress",
      "outputs": [],
      "stateMutability": "nonpayable",
      "type": "function"
    },
    {
      "inputs": [],
      "name": "permanentlyFreezeTransferEventListenerAddress",
      "outputs": [],
      "stateMutability": "nonpayable",
      "type": "function"
    },
    {
      "inputs": [],
      "name": "proxyBaseUri",
      "outputs": [
        {
          "internalType": "string",
          "name": "",
          "type": "string"
        }
      ],
      "stateMutability": "view",
      "type": "function"
    },
    {
      "inputs": [
        {
          "internalType": "uint256[]",
          "name": "tokenIds",
          "type": "uint256[]"
        },
        {
          "internalType": "uint256[]",
          "name": "amounts",
          "type": "uint256[]"
        }
      ],
      "name": "redeemClaims",
      "outputs": [],
      "stateMutability": "nonpayable",
      "type": "function"
    },
    {
      "inputs": [],
      "name": "renounceOwnership",
      "outputs": [],
      "stateMutability": "nonpayable",
      "type": "function"
    },
    {
      "inputs": [
        {
          "internalType": "uint256",
          "name": "tokenId",
          "type": "uint256"
        }
      ],
      "name": "resetTokenRoyalty",
      "outputs": [],
      "stateMutability": "nonpayable",
      "type": "function"
    },
    {
      "inputs": [
        {
          "internalType": "uint256",
          "name": "_tokenId",
          "type": "uint256"
        },
        {
          "internalType": "uint256",
          "name": "_salePrice",
          "type": "uint256"
        }
      ],
      "name": "royaltyInfo",
      "outputs": [
        {
          "internalType": "address",
          "name": "",
          "type": "address"
        },
        {
          "internalType": "uint256",
          "name": "",
          "type": "uint256"
        }
      ],
      "stateMutability": "view",
      "type": "function"
    },
    {
      "inputs": [
        {
          "internalType": "address",
          "name": "from",
          "type": "address"
        },
        {
          "internalType": "address",
          "name": "to",
          "type": "address"
        },
        {
          "internalType": "uint256[]",
          "name": "ids",
          "type": "uint256[]"
        },
        {
          "internalType": "uint256[]",
          "name": "amounts",
          "type": "uint256[]"
        },
        {
          "internalType": "bytes",
          "name": "data",
          "type": "bytes"
        }
      ],
      "name": "safeBatchTransferFrom",
      "outputs": [],
      "stateMutability": "nonpayable",
      "type": "function"
    },
    {
      "inputs": [
        {
          "internalType": "address",
          "name": "from",
          "type": "address"
        },
        {
          "internalType": "address",
          "name": "to",
          "type": "address"
        },
        {
          "internalType": "uint256",
          "name": "id",
          "type": "uint256"
        },
        {
          "internalType": "uint256",
          "name": "amount",
          "type": "uint256"
        },
        {
          "internalType": "bytes",
          "name": "data",
          "type": "bytes"
        }
      ],
      "name": "safeTransferFrom",
      "outputs": [],
      "stateMutability": "nonpayable",
      "type": "function"
    },
    {
      "inputs": [
        {
          "internalType": "address",
          "name": "operator",
          "type": "address"
        },
        {
          "internalType": "bool",
          "name": "approved",
          "type": "bool"
        }
      ],
      "name": "setApprovalForAll",
      "outputs": [],
      "stateMutability": "nonpayable",
      "type": "function"
    },
    {
      "inputs": [
        {
          "internalType": "address",
          "name": "receiver",
          "type": "address"
        },
        {
          "internalType": "uint96",
          "name": "feeNumerator",
          "type": "uint96"
        }
      ],
      "name": "setDefaultRoyalty",
      "outputs": [],
      "stateMutability": "nonpayable",
      "type": "function"
    },
    {
      "inputs": [
        {
          "internalType": "address",
          "name": "treasury",
          "type": "address"
        },
        {
          "internalType": "address",
          "name": "vault",
          "type": "address"
        }
      ],
      "name": "setInitialHolders",
      "outputs": [],
      "stateMutability": "nonpayable",
      "type": "function"
    },
    {
      "inputs": [
        {
          "internalType": "uint256[]",
          "name": "newInitialSupply",
          "type": "uint256[]"
        }
      ],
      "name": "setInitialSupply",
      "outputs": [],
      "stateMutability": "nonpayable",
      "type": "function"
    },
    {
      "inputs": [
        {
          "internalType": "uint256",
          "name": "tokenId",
          "type": "uint256"
        }
      ],
      "name": "setLockInitialHoldersUpTo",
      "outputs": [],
      "stateMutability": "nonpayable",
      "type": "function"
    },
    {
      "inputs": [
        {
          "internalType": "address",
          "name": "_operatorFilterRegistryAddress",
          "type": "address"
        }
      ],
      "name": "setOperatorFilterRegistryAddress",
      "outputs": [],
      "stateMutability": "nonpayable",
      "type": "function"
    },
    {
      "inputs": [
        {
          "internalType": "string",
          "name": "periodName",
          "type": "string"
        }
      ],
      "name": "setPeriod",
      "outputs": [],
      "stateMutability": "nonpayable",
      "type": "function"
    },
    {
      "inputs": [
        {
          "internalType": "string",
          "name": "newUri",
          "type": "string"
        },
        {
          "internalType": "uint256",
          "name": "validUpToTokenId",
          "type": "uint256"
        }
      ],
      "name": "setPermanentBaseUriUpTo",
      "outputs": [],
      "stateMutability": "nonpayable",
      "type": "function"
    },
    {
      "inputs": [
        {
          "internalType": "string",
          "name": "newProxyUri",
          "type": "string"
        }
      ],
      "name": "setProxyBaseUri",
      "outputs": [],
      "stateMutability": "nonpayable",
      "type": "function"
    },
    {
      "inputs": [
        {
          "internalType": "uint256",
          "name": "tokenId",
          "type": "uint256"
        },
        {
          "internalType": "address",
          "name": "receiver",
          "type": "address"
        },
        {
          "internalType": "uint96",
          "name": "feeNumerator",
          "type": "uint96"
        }
      ],
      "name": "setTokenRoyalty",
      "outputs": [],
      "stateMutability": "nonpayable",
      "type": "function"
    },
    {
      "inputs": [
        {
          "internalType": "address",
          "name": "listener",
          "type": "address"
        }
      ],
      "name": "setTransferEventListenerAddress",
      "outputs": [],
      "stateMutability": "nonpayable",
      "type": "function"
    },
    {
      "inputs": [
        {
          "internalType": "bytes4",
          "name": "interfaceId",
          "type": "bytes4"
        }
      ],
      "name": "supportsInterface",
      "outputs": [
        {
          "internalType": "bool",
          "name": "",
          "type": "bool"
        }
      ],
      "stateMutability": "view",
      "type": "function"
    },
    {
      "inputs": [
        {
          "internalType": "uint256",
          "name": "year",
          "type": "uint256"
        },
        {
          "internalType": "uint256",
          "name": "month",
          "type": "uint256"
        },
        {
          "internalType": "uint256",
          "name": "day",
          "type": "uint256"
        }
      ],
      "name": "tokenSlugFromDate",
      "outputs": [
        {
          "internalType": "string",
          "name": "tokenSlug",
          "type": "string"
        }
      ],
      "stateMutability": "pure",
      "type": "function"
    },
    {
      "inputs": [
        {
          "internalType": "uint256",
          "name": "tokenId",
          "type": "uint256"
        }
      ],
      "name": "tokenSlugFromTokenId",
      "outputs": [
        {
          "internalType": "string",
          "name": "tokenSlug",
          "type": "string"
        }
      ],
      "stateMutability": "pure",
      "type": "function"
    },
    {
      "inputs": [
        {
          "internalType": "uint256",
          "name": "tokenId",
          "type": "uint256"
        }
      ],
      "name": "totalSupply",
      "outputs": [
        {
          "internalType": "uint256",
          "name": "",
          "type": "uint256"
        }
      ],
      "stateMutability": "view",
      "type": "function"
    },
    {
      "inputs": [],
      "name": "transferEventListenerAddress",
      "outputs": [
        {
          "internalType": "address",
          "name": "",
          "type": "address"
        }
      ],
      "stateMutability": "view",
      "type": "function"
    },
    {
      "inputs": [
        {
          "internalType": "address",
          "name": "newOwner",
          "type": "address"
        }
      ],
      "name": "transferOwnership",
      "outputs": [],
      "stateMutability": "nonpayable",
      "type": "function"
    },
    {
      "inputs": [],
      "name": "unpause",
      "outputs": [],
      "stateMutability": "nonpayable",
      "type": "function"
    },
    {
      "inputs": [
        {
          "components": [
            {
              "internalType": "address[]",
              "name": "fromAddresses",
              "type": "address[]"
            },
            {
              "internalType": "address[]",
              "name": "toAddresses",
              "type": "address[]"
            },
            {
              "internalType": "uint256[][]",
              "name": "ids",
              "type": "uint256[][]"
            },
            {
              "internalType": "uint256[][]",
              "name": "amounts",
              "type": "uint256[][]"
            },
            {
              "internalType": "address[][]",
              "name": "newInitialHolders",
              "type": "address[][]"
            },
            {
              "internalType": "uint256[]",
              "name": "newInitialHolderRanges",
              "type": "uint256[]"
            }
          ],
          "internalType": "struct ERC1155MintRangeUpdateable.UpdateInitialHoldersInput",
          "name": "input",
          "type": "tuple"
        },
        {
          "internalType": "bytes32",
          "name": "checksum",
          "type": "bytes32"
        }
      ],
      "name": "updateInitialHolders",
      "outputs": [],
      "stateMutability": "nonpayable",
      "type": "function"
    },
    {
      "inputs": [
        {
          "internalType": "uint256",
          "name": "tokenId",
          "type": "uint256"
        }
      ],
      "name": "uri",
      "outputs": [
        {
          "internalType": "string",
          "name": "",
          "type": "string"
        }
      ],
      "stateMutability": "view",
      "type": "function"
    },
    {
      "inputs": [
        {
          "internalType": "uint256",
          "name": "tokenId",
          "type": "uint256"
        }
      ],
      "name": "uriHistory",
      "outputs": [
        {
          "internalType": "string[][]",
          "name": "",
          "type": "string[][]"
        }
      ],
      "stateMutability": "view",
      "type": "function"
    },
    {
      "inputs": [
        {
          "components": [
            {
              "internalType": "address[]",
              "name": "fromAddresses",
              "type": "address[]"
            },
            {
              "internalType": "address[]",
              "name": "toAddresses",
              "type": "address[]"
            },
            {
              "internalType": "uint256[][]",
              "name": "ids",
              "type": "uint256[][]"
            },
            {
              "internalType": "uint256[][]",
              "name": "amounts",
              "type": "uint256[][]"
            },
            {
              "internalType": "address[][]",
              "name": "newInitialHolders",
              "type": "address[][]"
            },
            {
              "internalType": "uint256[]",
              "name": "newInitialHolderRanges",
              "type": "uint256[]"
            }
          ],
          "internalType": "struct ERC1155MintRangeUpdateable.UpdateInitialHoldersInput",
          "name": "input",
          "type": "tuple"
        }
      ],
      "name": "verifyUpdateInitialHoldersInput",
      "outputs": [
        {
          "internalType": "bytes32",
          "name": "",
          "type": "bytes32"
        }
      ],
      "stateMutability": "view",
      "type": "function"
    }
  ],
  "bytecode": "0x6080604052601280546001600160a01b0319166daaeb6d7670e522a718067333cd4e179055601b805460ff60a81b191690553480156200003e57600080fd5b506040516200660238038062006602833981016040819052620000619162000655565b60408051602081019091526000815281906200007d81620002bc565b5060088054600181810190925560007ff3f7a9fe364faab93b216da50a3214154f22a0a2b415b23a84c8169e8b636ee390910181905560078054928301815590528151620000f3917fa66cc928b5edb82af9bd49922954155ab7b0942694bea4ce44661d9a8736c688019060208401906200042c565b5060005b815181101562000163576001600960008484815181106200011c576200011c6200073a565b6020908102919091018101516001600160a01b03168252810191909152604001600020805460ff1916911515919091179055806200015a8162000750565b915050620000f7565b5050600c805461ff00191690556200017b33620002d5565b60148054600181810190925560007fce6d7b5282bd9a3661ae061feed1dbda4e52ab073b1f9285be6e155d9c38d4ec9091018190556040805180820190915260028082526003602083015260138054948501815590925262000200927f66de8ffda797e3de9c05e8fc57b3bf0ec28a930d40b0d285d93c06501cf6a090019162000496565b5060188054600180820190925560007fb13d2d76d1f4b7be834882e410b3e3a8afaf69f83600ae24db354391d2378d2e909101819055601780549283018155905260408051808201909152600480825263125b9a5d60e21b60209092019182526200028f927fc624b66cc0138b8fabc209247f72d758e1cf3343756d543badbf24212bed8c15019190620004d9565b508151620002a5906019906020850190620004d9565b50620002b4336101f462000327565b5050620007b4565b8051620002d1906002906020840190620004d9565b5050565b601180546001600160a01b038381166001600160a01b0319831681179093556040519116919082907f8be0079c531659141344cd1fd0a4f28419497f9722a3daafe3b4186f6b6457e090600090a35050565b6127106001600160601b03821611156200039b5760405162461bcd60e51b815260206004820152602a60248201527f455243323938313a20726f79616c7479206665652077696c6c206578636565646044820152692073616c65507269636560b01b60648201526084015b60405180910390fd5b6001600160a01b038216620003f35760405162461bcd60e51b815260206004820152601960248201527f455243323938313a20696e76616c696420726563656976657200000000000000604482015260640162000392565b604080518082019091526001600160a01b039092168083526001600160601b039091166020909201829052600160a01b90910217600f55565b82805482825590600052602060002090810192821562000484579160200282015b828111156200048457825182546001600160a01b0319166001600160a01b039091161782556020909201916001909101906200044d565b506200049292915062000556565b5090565b82805482825590600052602060002090810192821562000484579160200282015b8281111562000484578251829060ff16905591602001919060010190620004b7565b828054620004e79062000778565b90600052602060002090601f0160209004810192826200050b576000855562000484565b82601f106200052657805160ff191683800117855562000484565b8280016001018555821562000484579182015b828111156200048457825182559160200191906001019062000539565b5b8082111562000492576000815560010162000557565b634e487b7160e01b600052604160045260246000fd5b604051601f8201601f191681016001600160401b0381118282101715620005ae57620005ae6200056d565b604052919050565b600082601f830112620005c857600080fd5b815160206001600160401b03821115620005e657620005e66200056d565b8160051b620005f782820162000583565b92835284810182019282810190878511156200061257600080fd5b83870192505b848310156200064a5782516001600160a01b03811681146200063a5760008081fd5b8252918301919083019062000618565b979650505050505050565b600080604083850312156200066957600080fd5b82516001600160401b03808211156200068157600080fd5b818501915085601f8301126200069657600080fd5b815181811115620006ab57620006ab6200056d565b6020620006c1601f8301601f1916820162000583565b8281528882848701011115620006d657600080fd5b60005b83811015620006f6578581018301518282018401528201620006d9565b83811115620007085760008385840101525b5090870151909550925050808211156200072157600080fd5b506200073085828601620005b6565b9150509250929050565b634e487b7160e01b600052603260045260246000fd5b6000600182016200077157634e487b7160e01b600052601160045260246000fd5b5060010190565b600181811c908216806200078d57607f821691505b602082108103620007ae57634e487b7160e01b600052602260045260246000fd5b50919050565b615e3e80620007c46000396000f3fe608060405234801561001057600080fd5b50600436106102ea5760003560e01c8062fdd58e146102ef57806301ffc9a71461031557806304634d8d1461033857806309bc9e6f1461034d5780630e89341c14610360578063194fd14c146103805780632a55205a146103885780632c49a9e0146103ba5780632dc5633d146103dd5780632eb2c2d614610402578063300fc4b51461041557806336fad65714610428578063372ab87214610430578063372c6533146104435780633ae1cc631461044e5780633b65b0f3146104615780633f4ba83a14610474578063431733081461047c57806348e203cc146104845780634a3150b3146104975780634db57525146104ad5780634e1273f4146104c35780634ed7485b146104e35780634f558e79146104f657806352c5486f1461050957806354b5b4f41461051c5780635944c7531461053d5780635ab470a4146105505780635c975abb14610559578063715018a61461056157806373bf0fee14610569578063749bbaac1461058c57806379517cf41461059f5780638456cb59146105b2578063877664e0146105ba5780638a616bc0146105c35780638da5cb5b146105d657806392425b5b146105de57806398a09d76146105eb578063a07b9dae14610601578063a224f0e414610609578063a22cb4651461061c578063a4dcfddc1461062f578063a6d59b6614610642578063b225f33214610655578063b8dd9c1a14610669578063baf3ff6014610672578063bd85b03914610685578063bf1dc25a14610698578063c399b103146106a5578063c3b719a0146106ad578063cc1b371d146106c0578063cd03d493146106e0578063ce2a052c146106ed578063d4b08aee14610700578063d7a5864114610713578063e0404e0e14610733578063e2f010c81461073b578063e985e9c51461074e578063ea3aff3b1461078a578063eb2cc1d41461079e578063f242432a146107a6578063f2fde38b146107b9578063f6d0e4ca146107cc578063fbc7e045146107fa575b600080fd5b6103026102fd366004614780565b61081d565b6040519081526020015b60405180910390f35b6103286103233660046147c0565b61091a565b604051901515815260200161030c565b61034b6103463660046147fb565b610925565b005b61034b61035b366004614baf565b610943565b61037361036e366004614bf3565b610991565b60405161030c9190614c64565b6103736109f9565b61039b610396366004614c77565b610a8b565b604080516001600160a01b03909316835260208301919091520161030c565b6103286103c8366004614bf3565b60056020526000908152604090205460ff1681565b601b546103f59061010090046001600160a01b031681565b60405161030c9190614c99565b61034b610410366004614d30565b610b37565b61034b610423366004614dd9565b610b83565b610373610b95565b61034b61043e366004614e8b565b610bce565b61030263630ff60081565b6012546103f5906001600160a01b031681565b61034b61046f366004614bf3565b610d07565b61034b610d23565b610302600081565b61034b610492366004614ec0565b610d35565b61049f610db0565b60405161030c929190614f6b565b6104b5610ea4565b60405161030c92919061501a565b6104d66104d136600461502d565b610f42565b60405161030c9190615090565b6103026104f13660046150a3565b61106b565b610328610504366004614bf3565b611134565b610373610517366004614bf3565b611162565b61052f61052a366004614bf3565b6111dd565b60405161030c9291906150d7565b61034b61054b366004615120565b611472565b610302600d5481565b610328611492565b61034b6114a0565b610328610577366004614ec0565b60096020526000908152604090205460ff1681565b61034b61059a36600461515c565b6114b2565b61034b6105ad366004615190565b6115dd565b61034b6115f2565b610302600b5481565b61034b6105d1366004614bf3565b611602565b6103f5611623565b601b546103289060ff1681565b6105f361163c565b60405161030c92919061522e565b61034b611710565b61034b61061736600461515c565b611738565b61034b61062a36600461524f565b61175b565b61034b61063d366004615286565b611777565b61034b6106503660046152b0565b611819565b601b5461032890600160a81b900460ff1681565b610302601a5481565b61034b610680366004614ec0565b6118e7565b610302610693366004614bf3565b611900565b600e546103289060ff1681565b61034b6119bb565b6104d66106bb366004614bf3565b6119da565b6106d36106ce366004614bf3565b611b5c565b60405161030c91906152e6565b600c546103289060ff1681565b6103736106fb3660046152f9565b611cee565b61037361070e366004614bf3565b611d77565b610726610721366004614bf3565b611e7b565b60405161030c9190615325565b61034b6120a0565b61034b610749366004615387565b6120c5565b61032861075c366004615286565b6001600160a01b03918216600090815260016020908152604080832093909416825291909152205460ff1690565b60115461032890600160a01b900460ff1681565b6105f3612258565b61034b6107b43660046153bb565b61232c565b61034b6107c7366004614ec0565b612371565b6103286107da366004614780565b600360209081526000928352604080842090915290825290205460ff1681565b610328610808366004614ec0565b600a6020526000908152604090205460ff1681565b60006001600160a01b0383166108775760405162461bcd60e51b815260206004820152601a60248201527922a92198989a9a9d103737ba1030903b30b634b21037bbb732b960311b60448201526064015b60405180910390fd5b610880836123e7565b80156108b057506001600160a01b038316600090815260036020908152604080832085845290915290205460ff16155b80156108cb575060008281526005602052604090205460ff16155b80156108db57506108db82612405565b156108f1576108ea838361241e565b9050610914565b506000818152602081815260408083206001600160a01b03861684529091529020545b92915050565b600061091482612568565b61092d61258d565b6109356125d5565b61093f8282612634565b5050565b61094b6125d5565b601b5460ff16156109875760405162461bcd60e51b815260040161086e90602080825260049082015263503a303360e01b604082015260600190565b61093f82826126ea565b6060600061099e83611134565b80156109ac575082601a5410155b6109bd576109b86109f9565b6109c5565b6109c5610b95565b9050806109d184611162565b6040516020016109e292919061543b565b604051602081830303815290604052915050919050565b606060198054610a089061546a565b80601f0160208091040260200160405190810160405280929190818152602001828054610a349061546a565b8015610a815780601f10610a5657610100808354040283529160200191610a81565b820191906000526020600020905b815481529060010190602001808311610a6457829003601f168201915b5050505050905090565b60008281526010602090815260408083208151808301909252546001600160a01b038116808352600160a01b9091046001600160601b0316928201929092528291610b00575060408051808201909152600f546001600160a01b0381168252600160a01b90046001600160601b031660208201525b602081015160009061271090610b1f906001600160601b0316876154ba565b610b2991906154ef565b915196919550909350505050565b6001600160a01b038516331480610b535750610b53853361075c565b610b6f5760405162461bcd60e51b815260040161086e90615503565b610b7c8585858585612765565b5050505050565b610b8b6125d5565b61093f828261294c565b6015805460609190610ba990600190615552565b81548110610bb957610bb9615569565b906000526020600020018054610a089061546a565b610bd661258d565b610bde6125d5565b600c5460ff161580610bfe5750601a5481118015610bfe5750600b548111155b610c335760405162461bcd60e51b815260040161086e90602080825260049082015263503a303160e01b604082015260600190565b80600003610ca857601580546001810182556000919091528251610c6c91600080516020615de9833981519152019060208501906145ad565b506016805460018101825560009182527fd833147d7dc355ba459fc788f669e58cfaf9dc25ddcd0702e87d69c7b512428901819055601a555050565b601580546001810182556000919091528251610cd991600080516020615de9833981519152019060208501906145ad565b506016601a546001610ceb919061557f565b81546001810183556000928352602090922090910155601a5550565b610d0f61258d565b610d176125d5565b610d208161295e565b50565b610d2b6125d5565b610d33612a08565b565b610d3d61258d565b610d456125d5565b601b54600160a81b900460ff1615610d885760405162461bcd60e51b815260040161086e90602080825260049082015263140e8c0d60e21b604082015260600190565b601b80546001600160a01b0390921661010002610100600160a81b0319909216919091179055565b6060806013601481805480602002602001604051908101604052809291908181526020016000905b82821015610e4457600084815260209081902083018054604080518285028101850190915281815292830182828015610e3057602002820191906000526020600020905b815481526020019060010190808311610e1c575b505050505081526020019060010190610dd8565b50505050915080805480602002602001604051908101604052809291908181526020018280548015610e9557602002820191906000526020600020905b815481526020019060010190808311610e81575b50505050509050915091509091565b6060806007600881805480602002602001604051908101604052809291908181526020016000905b82821015610e4457600084815260209081902083018054604080518285028101850190915281815292830182828015610f2e57602002820191906000526020600020905b81546001600160a01b03168152600190910190602001808311610f10575b505050505081526020019060010190610ecc565b60608151835114610fa75760405162461bcd60e51b815260206004820152602960248201527f455243313135353a206163636f756e747320616e6420696473206c656e677468604482015268040dad2e6dac2e8c6d60bb1b606482015260840161086e565b600083516001600160401b03811115610fc257610fc261482e565b604051908082528060200260200182016040528015610feb578160200160208202803683370190505b50905060005b84518110156110635761103685828151811061100f5761100f615569565b602002602001015185838151811061102957611029615569565b602002602001015161081d565b82828151811061104857611048615569565b602090810291909101015261105c81615597565b9050610ff1565b509392505050565b6000611075612a55565b6040805160e08101825283518152602080850151908201528382015181830152606080850151908201526080808501519082015260a080850151908201523060c0820152905163e36d1cfb60e01b815273__$08c2e564258845cb69f7a085e44a279d10$__9163e36d1cfb916110ee91906004016155b0565b602060405180830381865af415801561110b573d6000803e3d6000fd5b505050506040513d601f19601f82011682018060405250810190610914919061567d565b919050565b600061113f82612405565b80610914575060008281526005602052604090205460ff16151560011492915050565b6040516352c5486f60e01b81526004810182905260609073__$08c2e564258845cb69f7a085e44a279d10$__906352c5486f90602401600060405180830381865af41580156111b5573d6000803e3d6000fd5b505050506040513d6000823e601f3d908101601f191682016040526109149190810190615696565b6040805180820190915260608082526020820152600c54600090819060ff16611207576000611215565b600b5461121590600161557f565b9050600061122282611b5c565b90506000856001600160401b0381111561123e5761123e61482e565b604051908082528060200260200182016040528015611267578160200160208202803683370190505b509050600082516001600160401b038111156112855761128561482e565b6040519080825280602002602001820160405280156112b857816020015b60608152602001906001900390816112a35790505b5090506000805b888210156114135760006112d3828861557f565b60008181526005602052604090205490915060ff16156112f35750611401565b8085848151811061130657611306615569565b60200260200101818152505060005b86518110156113f15783600003611386578a6001600160401b0381111561133e5761133e61482e565b604051908082528060200260200182016040528015611367578160200160208202803683370190505b5085828151811061137a5761137a615569565b60200260200101819052505b6113a987828151811061139b5761139b615569565b60200260200101518361241e565b8582815181106113bb576113bb615569565b602002602001015185815181106113d4576113d4615569565b6020908102919091010152806113e981615597565b915050611315565b506113fd60018461557f565b9250505b8061140b81615597565b9150506112bf565b50600b54600c5460065460405160009361143b93889388938b939260ff169190602001615717565b60408051601f1981840301815282825280516020918201208383019092529582529481019390935250909791965090945050505050565b61147a61258d565b6114826125d5565b61148d838383612aa0565b505050565b600c54610100900460ff1690565b6114a86125d5565b610d336000612b69565b6114ba61258d565b6114c26125d5565b6018546000906114d490600190615552565b601680549192506000916114ea90600190615552565b815481106114fa576114fa615569565b906000526020600020015490506018828154811061151a5761151a615569565b9060005260206000200154810361156257826017838154811061153f5761153f615569565b90600052602060002001908051906020019061155c9291906145ad565b50505050565b6017805460018101825560009190915283516115a5917fc624b66cc0138b8fabc209247f72d758e1cf3343756d543badbf24212bed8c15019060208601906145ad565b50601880546001810182556000919091527fb13d2d76d1f4b7be834882e410b3e3a8afaf69f83600ae24db354391d2378d2e01555050565b6115e56125d5565b61148d8360008484612bbb565b6115fa6125d5565b610d33612cdb565b61160a61258d565b6116126125d5565b600090815260106020526040812055565b60006116376011546001600160a01b031690565b905090565b6060806017601881805480602002602001604051908101604052809291908181526020016000905b82821015610e445783829060005260206000200180546116839061546a565b80601f01602080910402602001604051908101604052809291908181526020018280546116af9061546a565b80156116fc5780601f106116d1576101008083540402835291602001916116fc565b820191906000526020600020905b8154815290600101906020018083116116df57829003601f168201915b505050505081526020019060010190611664565b61171861258d565b6117206125d5565b610d336011805460ff60a01b1916600160a01b179055565b61174061258d565b6117486125d5565b805161093f9060199060208401906145ad565b61176361258d565b8161176d81612d1a565b61148d8383612dad565b61177f61258d565b6117876125d5565b60408051600280825260608201835260009260208301908036833701905050905082816000815181106117bc576117bc615569565b60200260200101906001600160a01b031690816001600160a01b03168152505081816001815181106117f0576117f0615569565b60200260200101906001600160a01b031690816001600160a01b03168152505061148d81612db8565b60008160008151811061182e5761182e615569565b60200260200101519050600061185d8460008151811061185057611850615569565b6020026020010151611b5c565b905060015b83518110156118a45783818151811061187d5761187d615569565b602002602001015183611890919061557f565b92508061189c81615597565b915050611862565b506118b133600084612dc9565b61155c816000815181106118c7576118c7615569565b602002602001015133868660405180602001604052806000815250612765565b6118ef61258d565b6118f76125d5565b610d2081612f51565b600061190b82612405565b8015611926575060008281526005602052604090205460ff16155b156119a85760008061193784611b5c565b905060005b81518110156119865761196882828151811061195a5761195a615569565b60200260200101518661241e565b611972908461557f565b92508061197e81615597565b91505061193c565b506000848152600460205260409020546119a0908361576f565b949350505050565b5060009081526004602052604090205490565b6119c361258d565b6119cb6125d5565b601b805460ff19166001179055565b6014546060906000906119ef90600190615552565b90508260148281548110611a0557611a05615569565b906000526020600020015411611a895760138181548110611a2857611a28615569565b90600052602060002001805480602002602001604051908101604052809291908181526020018280548015611a7c57602002820191906000526020600020905b815481526020019060010190808311611a68575b5050505050915050919050565b6000611ae56014805480602002602001604051908101604052809291908181526020018280548015611ada57602002820191906000526020600020905b815481526020019060010190808311611ac6575b505050505085612fb6565b905060138181548110611afa57611afa615569565b90600052602060002001805480602002602001604051908101604052809291908181526020018280548015611b4e57602002820191906000526020600020905b815481526020019060010190808311611b3a575b505050505092505050919050565b600854606090600090611b7190600190615552565b90508260088281548110611b8757611b87615569565b906000526020600020015411611c145760078181548110611baa57611baa615569565b90600052602060002001805480602002602001604051908101604052809291908181526020018280548015611a7c57602002820191906000526020600020905b81546001600160a01b03168152600190910190602001808311611bea575050505050915050919050565b6000611c6e6008805480602002602001604051908101604052809291908181526020018280548015611ada5760200282019190600052602060002090815481526020019060010190808311611ac657505050505085612fb6565b905060078181548110611c8357611c83615569565b90600052602060002001805480602002602001604051908101604052809291908181526020018280548015611b4e57602002820191906000526020600020905b81546001600160a01b03168152600190910190602001808311611cc357505050505092505050919050565b60405163338a814b60e21b815260048101849052602481018390526044810182905260609073__$08c2e564258845cb69f7a085e44a279d10$__9063ce2a052c90606401600060405180830381865af4158015611d4f573d6000803e3d6000fd5b505050506040513d6000823e601f3d908101601f191682016040526119a09190810190615696565b60606000611dd56018805480602002602001604051908101604052809291908181526020018280548015611dca57602002820191906000526020600020905b815481526020019060010190808311611db6575b505050505084612fb6565b905060178181548110611dea57611dea615569565b906000526020600020018054611dff9061546a565b80601f0160208091040260200160405190810160405280929190818152602001828054611e2b9061546a565b8015611a7c5780601f10611e4d57610100808354040283529160200191611a7c565b820191906000526020600020905b815481529060010190602001808311611e5b575093979650505050505050565b6060601a54821115611eb9576040805160008082526020820190925290611eb2565b6060815260200190600190039081611e9d5790505b5092915050565b6000611f136016805480602002602001604051908101604052809291908181526020018280548015611dca5760200282019190600052602060002090815481526020019060010190808311611db657505050505084612fb6565b90506000611f2084611162565b601554909150600090611f34908490615552565b6001600160401b03811115611f4b57611f4b61482e565b604051908082528060200260200182016040528015611f7e57816020015b6060815260200190600190039081611f695790505b509050825b6015548110156120975760408051600280825260608201909252600091816020015b6060815260200190600190039081611fa557905050905060158281548110611fcf57611fcf615569565b9060005260206000200184604051602001611feb9291906157b0565b6040516020818303038152906040528160008151811061200d5761200d615569565b602002602001018190525061203e6016838154811061202e5761202e615569565b9060005260206000200154611d77565b8160018151811061205157612051615569565b602090810291909101015280836120688785615552565b8151811061207857612078615569565b602002602001018190525050808061208f90615597565b915050611f83565b50949350505050565b6120a861258d565b6120b06125d5565b601b805460ff60a81b1916600160a81b179055565b6120cd61258d565b6120d56125d5565b8051600214801561211a5750806001815181106120f4576120f4615569565b60200260200101518160008151811061210f5761210f615569565b602002602001015111155b61214f5760405162461bcd60e51b815260040161086e90602080825260049082015263281d181960e11b604082015260600190565b600c5460009060ff16612163576000612171565b600b5461217190600161557f565b60145490915060009061218690600190615552565b905060006014828154811061219d5761219d615569565b906000526020600020015490508281036121e85783601383815481106121c5576121c5615569565b9060005260206000200190805190602001906121e2929190614631565b5061155c565b6014805460018181019092557fce6d7b5282bd9a3661ae061feed1dbda4e52ab073b1f9285be6e155d9c38d4ec018490556013805491820181556000528451610b7c917f66de8ffda797e3de9c05e8fc57b3bf0ec28a930d40b0d285d93c06501cf6a09001906020870190614631565b6060806015601681805480602002602001604051908101604052809291908181526020016000905b82821015610e4457838290600052602060002001805461229f9061546a565b80601f01602080910402602001604051908101604052809291908181526020018280546122cb9061546a565b80156123185780601f106122ed57610100808354040283529160200191612318565b820191906000526020600020905b8154815290600101906020018083116122fb57829003601f168201915b505050505081526020019060010190612280565b6001600160a01b0385163314806123485750612348853361075c565b6123645760405162461bcd60e51b815260040161086e90615503565b610b7c8585858585613003565b6123796125d5565b6001600160a01b0381166123de5760405162461bcd60e51b815260206004820152602660248201527f4f776e61626c653a206e6577206f776e657220697320746865207a65726f206160448201526564647265737360d01b606482015260840161086e565b610d2081612b69565b6001600160a01b031660009081526009602052604090205460ff1690565b600c5460009060ff168015610914575050600b54101590565b60008061242a83611b5c565b90508060008151811061243f5761243f615569565b60200260200101516001600160a01b0316846001600160a01b03160361252157600061246a846119da565b905060008160008151811061248157612481615569565b60200260200101518260008151811061249c5761249c615569565b6020026020010151836001815181106124b7576124b7615569565b60200260200101516124c99190615552565b6124d490600161557f565b8630856040516020016124e99392919061584d565b6040516020818303038152906040528051906020012060001c61250c9190615877565b612516919061557f565b935061091492505050565b8060018151811061253457612534615569565b60200260200101516001600160a01b0316846001600160a01b03160361255e576001915050610914565b5060009392505050565b60006001600160e01b0319821663152a902d60e11b1480610914575061091482613137565b612595611492565b15610d335760405162461bcd60e51b815260206004820152601060248201526f14185d5cd8589b194e881c185d5cd95960821b604482015260640161086e565b336125de611623565b6001600160a01b031614610d335760405162461bcd60e51b815260206004820181905260248201527f4f776e61626c653a2063616c6c6572206973206e6f7420746865206f776e6572604482015260640161086e565b6127106001600160601b038216111561265f5760405162461bcd60e51b815260040161086e9061588b565b6001600160a01b0382166126b15760405162461bcd60e51b815260206004820152601960248201527822a921991c9c189d1034b73b30b634b2103932b1b2b4bb32b960391b604482015260640161086e565b604080518082019091526001600160a01b039092168083526001600160601b039091166020909201829052600160a01b90910217600f55565b600082600760086126f9611492565b60405160200161270c9493929190615993565b60405160208183030381529060405280519060200120905080821461275c5760405162461bcd60e51b815260040161086e906020808252600490820152630483a31360e41b604082015260600190565b61148d83613187565b81518351146127c75760405162461bcd60e51b815260206004820152602860248201527f455243313135353a2069647320616e6420616d6f756e7473206c656e677468206044820152670dad2e6dac2e8c6d60c31b606482015260840161086e565b6001600160a01b0384166127ed5760405162461bcd60e51b815260040161086e90615a7f565b336127fc818787878787613aad565b60005b84518110156128e257600085828151811061281c5761281c615569565b60200260200101519050600085838151811061283a5761283a615569565b602090810291909101810151600084815280835260408082206001600160a01b038e16835290935291909120549091508181101561288a5760405162461bcd60e51b815260040161086e90615ac4565b6000838152602081815260408083206001600160a01b038e8116855292528083208585039055908b168252812080548492906128c790849061557f565b92505081905550505050806128db90615597565b90506127ff565b50846001600160a01b0316866001600160a01b0316826001600160a01b0316600080516020615da98339815191528787604051612920929190615b0e565b60405180910390a4612936818787878787613aed565b612944818787878787613b7b565b505050505050565b61295461258d565b61093f8282613cdd565b61296661258d565b600d5481116129a05760405162461bcd60e51b815260040161086e90602080825260049082015263483a303160e01b604082015260600190565b600c5460ff1680156129b45750600b548111155b6129e95760405162461bcd60e51b815260040161086e90602080825260049082015263241d181960e11b604082015260600190565b600d819055600e5460ff16610d2057600e805460ff1916600117905550565b612a10612a55565b600c805461ff00191690557f5db9ee0a495bf2e6ff9c91a7834c1ba4fdd244a5e8aa4e537bd38aeae4b073aa335b604051612a4b9190614c99565b60405180910390a1565b612a5d611492565b610d335760405162461bcd60e51b815260206004820152601460248201527314185d5cd8589b194e881b9bdd081c185d5cd95960621b604482015260640161086e565b6127106001600160601b0382161115612acb5760405162461bcd60e51b815260040161086e9061588b565b6001600160a01b038216612b1f5760405162461bcd60e51b815260206004820152601b60248201527a455243323938313a20496e76616c696420706172616d657465727360281b604482015260640161086e565b6040805180820182526001600160a01b0393841681526001600160601b0392831660208083019182526000968752601090529190942093519051909116600160a01b029116179055565b601180546001600160a01b038381166001600160a01b0319831681179093556040519116919082907f8be0079c531659141344cd1fd0a4f28419497f9722a3daafe3b4186f6b6457e090600090a35050565b6001600160a01b038416612c1b5760405162461bcd60e51b815260206004820152602160248201527f455243313135353a206d696e7420746f20746865207a65726f206164647265736044820152607360f81b606482015260840161086e565b336000612c2785613e5f565b90506000612c3485613e5f565b9050612c4583600089858589613aad565b6000868152602081815260408083206001600160a01b038b16845290915281208054879290612c7590849061557f565b909155505060408051878152602081018790526001600160a01b03808a169260009291871691600080516020615dc9833981519152910160405180910390a4612cc383600089858589613aed565b612cd283600089898989613eaa565b50505050505050565b612ce361258d565b600c805461ff0019166101001790557f62e78cea01bee320cd4e420270b5ea74000d11b0c9f74754ebdbfc544b05a258612a3e3390565b601254604051633185c44d60e21b81523060048201526001600160a01b0383811660248301529091169063c617113490604401602060405180830381865afa158015612d6a573d6000803e3d6000fd5b505050506040513d601f19601f82011682018060405250810190612d8e9190615b21565b610d205780604051633b79c77360e21b815260040161086e9190614c99565b61093f338383613f6c565b612dc061258d565b610d208161404c565b6001600160a01b038316612e2b5760405162461bcd60e51b815260206004820152602360248201527f455243313135353a206275726e2066726f6d20746865207a65726f206164647260448201526265737360e81b606482015260840161086e565b336000612e3784613e5f565b90506000612e4484613e5f565b9050612e6483876000858560405180602001604052806000815250613aad565b6000858152602081815260408083206001600160a01b038a16845290915290205484811015612ee15760405162461bcd60e51b8152602060048201526024808201527f455243313135353a206275726e20616d6f756e7420657863656564732062616c604482015263616e636560e01b606482015260840161086e565b6000868152602081815260408083206001600160a01b038b81168086529184528285208a8703905582518b81529384018a9052909290881691600080516020615dc9833981519152910160405180910390a4612cd284886000868660405180602001604052806000815250613aed565b601154600160a01b900460ff1615612f945760405162461bcd60e51b815260040161086e906020808252600490820152634f3a303160e01b604082015260600190565b601280546001600160a01b0319166001600160a01b0392909216919091179055565b60008060018451612fc79190615552565b90505b838181518110612fdc57612fdc615569565b60200260200101518310612ff1579050610914565b80612ffb81615b3e565b915050612fca565b6001600160a01b0384166130295760405162461bcd60e51b815260040161086e90615a7f565b33600061303585613e5f565b9050600061304285613e5f565b9050613052838989858589613aad565b6000868152602081815260408083206001600160a01b038c168452909152902054858110156130935760405162461bcd60e51b815260040161086e90615ac4565b6000878152602081815260408083206001600160a01b038d8116855292528083208985039055908a168252812080548892906130d090849061557f565b909155505060408051888152602081018890526001600160a01b03808b16928c82169291881691600080516020615dc9833981519152910160405180910390a461311e848a8a86868a613aed565b61312c848a8a8a8a8a613eaa565b505050505050505050565b60006001600160e01b03198216636cdb3d1360e11b148061316857506001600160e01b031982166303a24d0760e21b145b8061091457506301ffc9a760e01b6001600160e01b0319831614610914565b61318f612a55565b8060a001516000815181106131a6576131a6615569565b602002602001015160001480156131e95750600b5460a082015180516131ce90600190615552565b815181106131de576131de615569565b602002602001015111155b80156131fe57508060800151518160a0015151145b6132335760405162461bcd60e51b815260040161086e90602080825260049082015263483a303360e01b604082015260600190565b6000805b8260a0015151821115801561324e57506008548111155b1561398d5760008360a0015151831061327457600b5461326f90600161557f565b613293565b8360a00151838151811061328a5761328a615569565b60200260200101515b60085490915060009083106132b557600b546132b090600161557f565b6132d4565b600883815481106132c8576132c8615569565b90600052602060002001545b90508082146138c0576000806060808486111561345e576000806132f960018b615552565b101561330657600061332f565b60a08a015161331660018b615552565b8151811061332657613326615569565b60200260200101515b6008549091506000906133438a600161557f565b1061335b57600b5461335690600161557f565b613384565b60086133688a600161557f565b8154811061337857613378615569565b90600052602060002001545b90508682116133935786613395565b815b955060018882106133a657886133a8565b815b6133b29190615552565b60808c01519095506133c560018c615552565b815181106133d5576133d5615569565b60200260200101519350600789815481106133f2576133f2615569565b9060005260206000200180548060200260200160405190810160405280929190818152602001828054801561345057602002820191906000526020600020905b81546001600160a01b03168152600190910190602001808311613432575b5050505050925050506135d1565b60008061346c60018a615552565b10156134795760006134a2565b600861348660018a615552565b8154811061349657613496615569565b90600052602060002001545b905060008a60a00151518a60016134b9919061557f565b106134d157600b546134cc90600161557f565b6134fa565b60a08b01516134e18b600161557f565b815181106134f1576134f1615569565b60200260200101515b9050878211613509578761350b565b815b9550600187821061351c578761351e565b815b6135289190615552565b94508a608001518a8151811061354057613540615569565b60200260200101519350600760018a6135599190615552565b8154811061356957613569615569565b906000526020600020018054806020026020016040519081016040528092919081815260200182805480156135c757602002820191906000526020600020905b81546001600160a01b031681526001909101906020018083116135a9575b5050505050925050505b815181511461360b5760405162461bcd60e51b815260040161086e90602080825260049082015263120e8c0d60e21b604082015260600190565b60005b82518110156138ba57600082828151811061362b5761362b615569565b60200260200101519050600084838151811061364957613649615569565b60200260200101519050806001600160a01b0316826001600160a01b0316146138a5576001600160a01b0381166136ab5760405162461bcd60e51b815260040161086e90602080825260049082015263483a303560e01b604082015260600190565b6001600160a01b0381166000908152600a602052604090205460ff1615806136eb57506001600160a01b03811660009081526009602052604090205460ff165b6137205760405162461bcd60e51b815260040161086e90602080825260049082015263241d181b60e11b604082015260600190565b600061372d84600161557f565b90505b85518110156137ae5785818151811061374b5761374b615569565b60200260200101516001600160a01b0316826001600160a01b03160361379c5760405162461bcd60e51b815260040161086e90602080825260049082015263483a303760e01b604082015260600190565b806137a681615597565b915050613730565b506001600160a01b0381166000908152600960205260409020805460ff19166001179055865b8681116138a357600e5460ff1615806137ee5750600d5481115b6138235760405162461bcd60e51b815260040161086e906020808252600490820152630907460760e31b604082015260600190565b6001600160a01b038216600090815260036020908152604080832084845290915290205460ff168061387857506001600160a01b038316600090815260036020908152604080832084845290915290205460ff165b156138915761388783826142f7565b61389182826142f7565b8061389b81615597565b9150506137d4565b505b505080806138b290615597565b91505061360e565b50505050505b808211806138dc575060a0850151516138da85600161557f565b115b156138f357826138eb81615597565b935050613986565b831580613943575060a085015161390b600186615552565b8151811061391b5761391b615569565b60200260200101518560a00151858151811061393957613939615569565b6020026020010151115b6139785760405162461bcd60e51b815260040161086e90602080825260049082015263483a303960e01b604082015260600190565b8361398281615597565b9450505b5050613237565b608083015180516139a69160079160209091019061466b565b5060a083015180516139c091600891602090910190614631565b506139c9612a08565b60005b836020015151811015613aa457836020015181815181106139ef576139ef615569565b60200260200101516001600160a01b031684600001518281518110613a1657613a16615569565b60200260200101516001600160a01b0316336001600160a01b0316600080516020615da983398151915287604001518581518110613a5657613a56615569565b602002602001015188606001518681518110613a7457613a74615569565b6020026020010151604051613a8a929190615b0e565b60405180910390a480613a9c81615597565b9150506139cc565b5061148d612cdb565b846001600160a01b0381163314801590613ad157506012546001600160a01b031615155b15613adf57613adf33612d1a565b612cd2878787878787614409565b601b5461010090046001600160a01b03161561294457601b54604051630cdb1d5360e01b81526101009091046001600160a01b031690630cdb1d5390613b4190899089908990899089908990600401615b55565b600060405180830381600087803b158015613b5b57600080fd5b505af1158015613b6f573d6000803e3d6000fd5b50505050505050505050565b613b8d846001600160a01b031661441f565b156129445760405163bc197c8160e01b81526001600160a01b0385169063bc197c8190613bc69089908990889088908890600401615bbc565b6020604051808303816000875af1925050508015613c01575060408051601f3d908101601f19168201909252613bfe91810190615c1a565b60015b613cad57613c0d615c37565b806308c379a003613c465750613c21615c53565b80613c2c5750613c48565b8060405162461bcd60e51b815260040161086e9190614c64565b505b60405162461bcd60e51b815260206004820152603460248201527f455243313135353a207472616e7366657220746f206e6f6e20455243313135356044820152732932b1b2b4bb32b91034b6b83632b6b2b73a32b960611b606482015260840161086e565b6001600160e01b0319811663bc197c8160e01b14612cd25760405162461bcd60e51b815260040161086e90615cdc565b6000613cf9836000015160008151811061185057611850615569565b8351602080860151600b54600c54600654604051969750600096613d26969589949360ff16929101615717565b604051602081830303815290604052805190602001209050808314613d765760405162461bcd60e51b815260040161086e90602080825260049082015263134e8c0d60e21b604082015260600190565b83518051613d8690600190615552565b81518110613d9657613d96615569565b6020908102919091010151600b55600c5460ff161515600003613dc157600c805460ff191660011790555b60005b8251811015610b7c57828181518110613ddf57613ddf615569565b60200260200101516001600160a01b031660006001600160a01b0316336001600160a01b0316600080516020615da9833981519152886000015189602001518681518110613e2f57613e2f615569565b6020026020010151604051613e45929190615b0e565b60405180910390a480613e5781615597565b915050613dc4565b60408051600180825281830190925260609160009190602080830190803683370190505090508281600081518110613e9957613e99615569565b602090810291909101015292915050565b613ebc846001600160a01b031661441f565b156129445760405163f23a6e6160e01b81526001600160a01b0385169063f23a6e6190613ef59089908990889088908890600401615d24565b6020604051808303816000875af1925050508015613f30575060408051601f3d908101601f19168201909252613f2d91810190615c1a565b60015b613f3c57613c0d615c37565b6001600160e01b0319811663f23a6e6160e01b14612cd25760405162461bcd60e51b815260040161086e90615cdc565b816001600160a01b0316836001600160a01b031603613fdf5760405162461bcd60e51b815260206004820152602960248201527f455243313135353a2073657474696e6720617070726f76616c20737461747573604482015268103337b91039b2b63360b91b606482015260840161086e565b6001600160a01b03838116600081815260016020908152604080832094871680845294825291829020805460ff191686151590811790915591519182527f17307eab39ab6107e8899845ad3d59bd9653f200f220920489ca2b5937696c31910160405180910390a3505050565b600c5460009060ff1661406057600061406e565b600b5461406e90600161557f565b60075490915060009061408390600190615552565b905060006008828154811061409a5761409a615569565b9060005260206000200154905060005b845181101561424e5760008582815181106140c7576140c7615569565b6020908102919091018101516001600160a01b0381166000908152600a90925260409091205490915060ff16158061411757506001600160a01b03811660009081526009602052604090205460ff165b61414c5760405162461bcd60e51b815260040161086e906020808252600490820152634d3a303160e01b604082015260600190565b6001600160a01b03811661418b5760405162461bcd60e51b815260040161086e90602080825260049082015263269d181960e11b604082015260600190565b600061419883600161557f565b90505b8651811015614219578681815181106141b6576141b6615569565b60200260200101516001600160a01b0316826001600160a01b0316036142075760405162461bcd60e51b815260040161086e906020808252600490820152634d3a303360e01b604082015260600190565b8061421181615597565b91505061419b565b506001600160a01b03166000908152600960205260409020805460ff191660011790558061424681615597565b9150506140aa565b5082810361428757836007838154811061426a5761426a615569565b9060005260206000200190805190602001906121e29291906146c4565b6008805460018181019092557ff3f7a9fe364faab93b216da50a3214154f22a0a2b415b23a84c8169e8b636ee3018490556007805491820181556000528451610b7c917fa66cc928b5edb82af9bd49922954155ab7b0942694bea4ce44661d9a8736c688019060208701906146c4565b614300826123e7565b801561431457506001600160a01b03821615155b801561434457506001600160a01b038216600090815260036020908152604080832084845290915290205460ff16155b801561435f575060008181526005602052604090205460ff16155b801561436f575061436f81612405565b1561093f576000614380838361241e565b905080156143d6576000828152602081815260408083206001600160a01b03871684529091529020546143b490829061557f565b6000838152602081815260408083206001600160a01b03881684529091529020555b506001600160a01b03821660009081526003602090815260408083208484529091529020805460ff191660011790555050565b61441161258d565b61294486868686868661442e565b6001600160a01b03163b151590565b60005b835181101561456357600084828151811061444e5761444e615569565b6020026020010151905060006001600160a01b0316876001600160a01b0316036144ee5761447b81611134565b6144ac576000818152600560205260408120805460ff1916600117905560068054916144a683615597565b91905055505b8382815181106144be576144be615569565b60200260200101516004600083815260200190815260200160002060008282546144e8919061576f565b90915550505b6001600160a01b03861661453e5783828151811061450e5761450e615569565b60200260200101516004600083815260200190815260200160002060008282546145389190615d69565b90915550505b61454887826142f7565b61455286826142f7565b5061455c81615597565b9050614431565b506001600160a01b0384166000908152600a602052604090205460ff166145a8576001600160a01b0384166000908152600a60205260409020805460ff191660011790555b612944565b8280546145b99061546a565b90600052602060002090601f0160209004810192826145db5760008555614621565b82601f106145f457805160ff1916838001178555614621565b82800160010185558215614621579182015b82811115614621578251825591602001919060010190614606565b5061462d929150614719565b5090565b8280548282559060005260206000209081019282156146215791602002820182811115614621578251825591602001919060010190614606565b8280548282559060005260206000209081019282156146b8579160200282015b828111156146b857825180516146a89184916020909101906146c4565b509160200191906001019061468b565b5061462d92915061472e565b828054828255906000526020600020908101928215614621579160200282015b8281111561462157825182546001600160a01b0319166001600160a01b039091161782556020909201916001909101906146e4565b5b8082111561462d576000815560010161471a565b8082111561462d576000614742828261474b565b5060010161472e565b5080546000825590600052602060002090810190610d209190614719565b80356001600160a01b038116811461112f57600080fd5b6000806040838503121561479357600080fd5b61479c83614769565b946020939093013593505050565b6001600160e01b031981168114610d2057600080fd5b6000602082840312156147d257600080fd5b81356147dd816147aa565b9392505050565b80356001600160601b038116811461112f57600080fd5b6000806040838503121561480e57600080fd5b61481783614769565b9150614825602084016147e4565b90509250929050565b634e487b7160e01b600052604160045260246000fd5b601f8201601f191681016001600160401b03811182821017156148695761486961482e565b6040525050565b60405160c081016001600160401b03811182821017156148925761489261482e565b60405290565b60006001600160401b038211156148b1576148b161482e565b5060051b60200190565b600082601f8301126148cc57600080fd5b813560206148d982614898565b6040516148e68282614844565b83815260059390931b850182019282810191508684111561490657600080fd5b8286015b848110156149285761491b81614769565b835291830191830161490a565b509695505050505050565b600082601f83011261494457600080fd5b8135602061495182614898565b60405161495e8282614844565b83815260059390931b850182019282810191508684111561497e57600080fd5b8286015b848110156149285780358352918301918301614982565b600082601f8301126149aa57600080fd5b813560206149b782614898565b6040516149c48282614844565b83815260059390931b85018201928281019150868411156149e457600080fd5b8286015b848110156149285780356001600160401b03811115614a075760008081fd5b614a158986838b0101614933565b8452509183019183016149e8565b600082601f830112614a3457600080fd5b81356020614a4182614898565b604051614a4e8282614844565b83815260059390931b8501820192828101915086841115614a6e57600080fd5b8286015b848110156149285780356001600160401b03811115614a915760008081fd5b614a9f8986838b01016148bb565b845250918301918301614a72565b600060c08284031215614abf57600080fd5b614ac7614870565b905081356001600160401b0380821115614ae057600080fd5b614aec858386016148bb565b83526020840135915080821115614b0257600080fd5b614b0e858386016148bb565b60208401526040840135915080821115614b2757600080fd5b614b3385838601614999565b60408401526060840135915080821115614b4c57600080fd5b614b5885838601614999565b60608401526080840135915080821115614b7157600080fd5b614b7d85838601614a23565b608084015260a0840135915080821115614b9657600080fd5b50614ba384828501614933565b60a08301525092915050565b60008060408385031215614bc257600080fd5b82356001600160401b03811115614bd857600080fd5b614be485828601614aad565b95602094909401359450505050565b600060208284031215614c0557600080fd5b5035919050565b60005b83811015614c27578181015183820152602001614c0f565b8381111561155c5750506000910152565b60008151808452614c50816020860160208601614c0c565b601f01601f19169290920160200192915050565b6020815260006147dd6020830184614c38565b60008060408385031215614c8a57600080fd5b50508035926020909101359150565b6001600160a01b0391909116815260200190565b60006001600160401b03821115614cc657614cc661482e565b50601f01601f191660200190565b600082601f830112614ce557600080fd5b8135614cf081614cad565b604051614cfd8282614844565b828152856020848701011115614d1257600080fd5b82602086016020830137600092810160200192909252509392505050565b600080600080600060a08688031215614d4857600080fd5b614d5186614769565b9450614d5f60208701614769565b935060408601356001600160401b0380821115614d7b57600080fd5b614d8789838a01614933565b94506060880135915080821115614d9d57600080fd5b614da989838a01614933565b93506080880135915080821115614dbf57600080fd5b50614dcc88828901614cd4565b9150509295509295909350565b60008060408385031215614dec57600080fd5b82356001600160401b0380821115614e0357600080fd5b9084019060408287031215614e1757600080fd5b604051604081018181108382111715614e3257614e3261482e565b604052823582811115614e4457600080fd5b614e5088828601614933565b825250602083013582811115614e6557600080fd5b614e7188828601614999565b602083015250809450505050602083013590509250929050565b60008060408385031215614e9e57600080fd5b82356001600160401b03811115614eb457600080fd5b614be485828601614cd4565b600060208284031215614ed257600080fd5b6147dd82614769565b600081518084526020808501945080840160005b83811015614f0b57815187529582019590820190600101614eef565b509495945050505050565b600081518084526020808501808196508360051b8101915082860160005b85811015614f5e578284038952614f4c848351614edb565b98850198935090840190600101614f34565b5091979650505050505050565b604081526000614f7e6040830185614f16565b8281036020840152614f908185614edb565b95945050505050565b600081518084526020808501945080840160005b83811015614f0b5781516001600160a01b031687529582019590820190600101614fad565b600081518084526020808501808196508360051b8101915082860160005b85811015614f5e578284038952615008848351614f99565b98850198935090840190600101614ff0565b604081526000614f7e6040830185614fd2565b6000806040838503121561504057600080fd5b82356001600160401b038082111561505757600080fd5b615063868387016148bb565b9350602085013591508082111561507957600080fd5b5061508685828601614933565b9150509250929050565b6020815260006147dd6020830184614edb565b6000602082840312156150b557600080fd5b81356001600160401b038111156150cb57600080fd5b6119a084828501614aad565b60408152600083516040808401526150f26080840182614edb565b90506020850151603f1984830301606085015261510f8282614f16565b925050508260208301529392505050565b60008060006060848603121561513557600080fd5b8335925061514560208501614769565b9150615153604085016147e4565b90509250925092565b60006020828403121561516e57600080fd5b81356001600160401b0381111561518457600080fd5b6119a084828501614cd4565b6000806000606084860312156151a557600080fd5b6151ae84614769565b92506020840135915060408401356001600160401b038111156151d057600080fd5b6151dc86828701614cd4565b9150509250925092565b600081518084526020808501808196508360051b8101915082860160005b85811015614f5e57828403895261521c848351614c38565b98850198935090840190600101615204565b604081526000614f7e60408301856151e6565b8015158114610d2057600080fd5b6000806040838503121561526257600080fd5b61526b83614769565b9150602083013561527b81615241565b809150509250929050565b6000806040838503121561529957600080fd5b6152a283614769565b915061482560208401614769565b600080604083850312156152c357600080fd5b82356001600160401b03808211156152da57600080fd5b61506386838701614933565b6020815260006147dd6020830184614f99565b60008060006060848603121561530e57600080fd5b505081359360208301359350604090920135919050565b6000602080830181845280855180835260408601915060408160051b870101925083870160005b8281101561537a57603f198886030184526153688583516151e6565b9450928501929085019060010161534c565b5092979650505050505050565b60006020828403121561539957600080fd5b81356001600160401b038111156153af57600080fd5b6119a084828501614933565b600080600080600060a086880312156153d357600080fd5b6153dc86614769565b94506153ea60208701614769565b9350604086013592506060860135915060808601356001600160401b0381111561541357600080fd5b614dcc88828901614cd4565b60008151615431818560208601614c0c565b9290920192915050565b6000835161544d818460208801614c0c565b835190830190615461818360208801614c0c565b01949350505050565b600181811c9082168061547e57607f821691505b60208210810361549e57634e487b7160e01b600052602260045260246000fd5b50919050565b634e487b7160e01b600052601160045260246000fd5b60008160001904831182151516156154d4576154d46154a4565b500290565b634e487b7160e01b600052601260045260246000fd5b6000826154fe576154fe6154d9565b500490565b6020808252602f908201527f455243313135353a2063616c6c6572206973206e6f7420746f6b656e206f776e60408201526e195c881b9bdc88185c1c1c9bdd9959608a1b606082015260800190565b600082821015615564576155646154a4565b500390565b634e487b7160e01b600052603260045260246000fd5b60008219821115615592576155926154a4565b500190565b6000600182016155a9576155a96154a4565b5060010190565b602081526000825160e060208401526155cd610100840182614f99565b90506020840151601f19808584030160408601526155eb8383614f99565b925060408601519150808584030160608601526156088383614f16565b925060608601519150808584030160808601526156258383614f16565b925060808601519150808584030160a08601526156428383614fd2565b925060a08601519150808584030160c0860152506156608282614edb565b91505060c084015161106360e08501826001600160a01b03169052565b60006020828403121561568f57600080fd5b5051919050565b6000602082840312156156a857600080fd5b81516001600160401b038111156156be57600080fd5b8201601f810184136156cf57600080fd5b80516156da81614cad565b6040516156e78282614844565b8281528660208486010111156156fc57600080fd5b61570d836020830160208701614c0c565b9695505050505050565b60c08152600061572a60c0830189614edb565b828103602084015261573c8189614f16565b905082810360408401526157508188614f99565b60608401969096525050911515608083015260a0909101529392505050565b600080821280156001600160ff1b0384900385131615615791576157916154a4565b600160ff1b83900384128116156157aa576157aa6154a4565b50500190565b600080845481600182811c9150808316806157cc57607f831692505b602080841082036157eb57634e487b7160e01b86526022600452602486fd5b8180156157ff57600181146158105761583d565b60ff1986168952848901965061583d565b60008b81526020902060005b868110156158355781548b82015290850190830161581c565b505084890196505b505050505050614f90818561541f565b8381526001600160a01b0383166020820152606060408201819052600090614f9090830184614edb565b600082615886576158866154d9565b500690565b6020808252602a908201527f455243323938313a20726f79616c7479206665652077696c6c206578636565646040820152692073616c65507269636560b01b606082015260800190565b600081548084526020808501808196508360051b810191506000868152838120815b86811015615950578385038a5281548086528284528684208787019190855b8281101561593b5781546001600160a01b031684529289019260019182019101615916565b505050998601999450600191820191016158f7565b509298975050505050505050565b6000815480845260208085019450836000528060002060005b83811015614f0b57815487529582019560019182019101615977565b608081526000855160c060808401526159b0610140840182614f99565b90506020870151607f19808584030160a08601526159ce8383614f99565b925060408901519150808584030160c08601526159eb8383614f16565b925060608901519150808584030160e0860152615a088383614f16565b9250608089015191508085840301610100860152615a268383614fd2565b925060a08901519150808584030161012086015250615a458282614edb565b9150508281036020840152615a5a81876158d5565b90508281036040840152615a6e818661595e565b915050614f90606083018415159052565b60208082526025908201527f455243313135353a207472616e7366657220746f20746865207a65726f206164604082015264647265737360d81b606082015260800190565b6020808252602a908201527f455243313135353a20696e73756666696369656e742062616c616e636520666f60408201526939103a3930b739b332b960b11b606082015260800190565b604081526000614f7e6040830185614edb565b600060208284031215615b3357600080fd5b81516147dd81615241565b600081615b4d57615b4d6154a4565b506000190190565b6001600160a01b03878116825286811660208301528516604082015260c060608201819052600090615b8990830186614edb565b8281036080840152615b9b8186614edb565b905082810360a0840152615baf8185614c38565b9998505050505050505050565b6001600160a01b0386811682528516602082015260a060408201819052600090615be890830186614edb565b8281036060840152615bfa8186614edb565b90508281036080840152615c0e8185614c38565b98975050505050505050565b600060208284031215615c2c57600080fd5b81516147dd816147aa565b600060033d1115615c505760046000803e5060005160e01c5b90565b600060443d1015615c615790565b6040516003193d81016004833e81513d6001600160401b038083116024840183101715615c9057505050505090565b8285019150815181811115615ca85750505050505090565b843d8701016020828501011115615cc25750505050505090565b615cd160208286010187614844565b509095945050505050565b60208082526028908201527f455243313135353a204552433131353552656365697665722072656a656374656040820152676420746f6b656e7360c01b606082015260800190565b6001600160a01b03868116825285166020820152604081018490526060810183905260a060808201819052600090615d5e90830184614c38565b979650505050505050565b60008083128015600160ff1b850184121615615d8757615d876154a4565b6001600160ff1b0384018313811615615da257615da26154a4565b5050039056fe4a39dc06d4c0dbc64b70af90fd698a233a518aa5d07e595d983b8c0526c8f7fbc3d58168c5ae7397731d063d5bbf3d657854427343f4c083240f7aacaa2d0f6255f448fdea98c4d29eb340757ef0a66cd03dbb9538908a6a81d96026b71ec475a26469706673582212209a80bf5afa87d9e3b18f607b853582edd4776374904ac208d5edf250d6e3d64a64736f6c634300080d0033",
  "linkReferences": {
    "contracts/Ph101ppDailyPhotoUtils.sol": {
      "Ph101ppDailyPhotoUtils": [
        {
          "length": 20,
          "start": 6283
        },
        {
          "length": 20,
          "start": 6463
        },
        {
          "length": 20,
          "start": 9433
        }
      ]
    }
  },
  "deployedLinkReferences": {
    "contracts/Ph101ppDailyPhotoUtils.sol": {
      "Ph101ppDailyPhotoUtils": [
        {
          "length": 20,
          "start": 4295
        },
        {
          "length": 20,
          "start": 4475
        },
        {
          "length": 20,
          "start": 7445
        }
      ]
    }
  }
}