{
  "_format": "hh-sol-artifact-1",
  "contractName": "Ph101ppDailyPhoto",
  "sourceName": "contracts/Ph101ppDailyPhoto.sol",
  "abi": [
    {
      "inputs": [
        {
          "internalType": "string",
          "name": "newProxyUri",
          "type": "string"
        },
        {
          "internalType": "string",
          "name": "newPermanentUri",
          "type": "string"
        },
        {
          "internalType": "address[]",
          "name": "initialHolders",
          "type": "address[]"
        }
      ],
      "stateMutability": "nonpayable",
      "type": "constructor"
    },
    {
      "inputs": [
        {
          "internalType": "address",
          "name": "operator",
          "type": "address"
        }
      ],
      "name": "OperatorNotAllowed",
      "type": "error"
    },
    {
      "anonymous": false,
      "inputs": [
        {
          "indexed": true,
          "internalType": "address",
          "name": "account",
          "type": "address"
        },
        {
          "indexed": true,
          "internalType": "address",
          "name": "operator",
          "type": "address"
        },
        {
          "indexed": false,
          "internalType": "bool",
          "name": "approved",
          "type": "bool"
        }
      ],
      "name": "ApprovalForAll",
      "type": "event"
    },
    {
      "anonymous": false,
      "inputs": [
        {
          "indexed": false,
          "internalType": "address",
          "name": "account",
          "type": "address"
        }
      ],
      "name": "Paused",
      "type": "event"
    },
    {
      "anonymous": false,
      "inputs": [
        {
          "indexed": true,
          "internalType": "bytes32",
          "name": "role",
          "type": "bytes32"
        },
        {
          "indexed": true,
          "internalType": "bytes32",
          "name": "previousAdminRole",
          "type": "bytes32"
        },
        {
          "indexed": true,
          "internalType": "bytes32",
          "name": "newAdminRole",
          "type": "bytes32"
        }
      ],
      "name": "RoleAdminChanged",
      "type": "event"
    },
    {
      "anonymous": false,
      "inputs": [
        {
          "indexed": true,
          "internalType": "bytes32",
          "name": "role",
          "type": "bytes32"
        },
        {
          "indexed": true,
          "internalType": "address",
          "name": "account",
          "type": "address"
        },
        {
          "indexed": true,
          "internalType": "address",
          "name": "sender",
          "type": "address"
        }
      ],
      "name": "RoleGranted",
      "type": "event"
    },
    {
      "anonymous": false,
      "inputs": [
        {
          "indexed": true,
          "internalType": "bytes32",
          "name": "role",
          "type": "bytes32"
        },
        {
          "indexed": true,
          "internalType": "address",
          "name": "account",
          "type": "address"
        },
        {
          "indexed": true,
          "internalType": "address",
          "name": "sender",
          "type": "address"
        }
      ],
      "name": "RoleRevoked",
      "type": "event"
    },
    {
      "anonymous": false,
      "inputs": [
        {
          "indexed": true,
          "internalType": "address",
          "name": "operator",
          "type": "address"
        },
        {
          "indexed": true,
          "internalType": "address",
          "name": "from",
          "type": "address"
        },
        {
          "indexed": true,
          "internalType": "address",
          "name": "to",
          "type": "address"
        },
        {
          "indexed": false,
          "internalType": "uint256[]",
          "name": "ids",
          "type": "uint256[]"
        },
        {
          "indexed": false,
          "internalType": "uint256[]",
          "name": "values",
          "type": "uint256[]"
        }
      ],
      "name": "TransferBatch",
      "type": "event"
    },
    {
      "anonymous": false,
      "inputs": [
        {
          "indexed": true,
          "internalType": "address",
          "name": "operator",
          "type": "address"
        },
        {
          "indexed": true,
          "internalType": "address",
          "name": "from",
          "type": "address"
        },
        {
          "indexed": true,
          "internalType": "address",
          "name": "to",
          "type": "address"
        },
        {
          "indexed": false,
          "internalType": "uint256",
          "name": "id",
          "type": "uint256"
        },
        {
          "indexed": false,
          "internalType": "uint256",
          "name": "value",
          "type": "uint256"
        }
      ],
      "name": "TransferSingle",
      "type": "event"
    },
    {
      "anonymous": false,
      "inputs": [
        {
          "indexed": false,
          "internalType": "string",
          "name": "value",
          "type": "string"
        },
        {
          "indexed": true,
          "internalType": "uint256",
          "name": "id",
          "type": "uint256"
        }
      ],
      "name": "URI",
      "type": "event"
    },
    {
      "anonymous": false,
      "inputs": [
        {
          "indexed": false,
          "internalType": "address",
          "name": "account",
          "type": "address"
        }
      ],
      "name": "Unpaused",
      "type": "event"
    },
    {
      "inputs": [],
      "name": "CLAIM_MINTER_ROLE",
      "outputs": [
        {
          "internalType": "bytes32",
          "name": "",
          "type": "bytes32"
        }
      ],
      "stateMutability": "view",
      "type": "function"
    },
    {
      "inputs": [],
      "name": "CLAIM_TOKEN_ID",
      "outputs": [
        {
          "internalType": "uint256",
          "name": "",
          "type": "uint256"
        }
      ],
      "stateMutability": "view",
      "type": "function"
    },
    {
      "inputs": [],
      "name": "DEFAULT_ADMIN_ROLE",
      "outputs": [
        {
          "internalType": "bytes32",
          "name": "",
          "type": "bytes32"
        }
      ],
      "stateMutability": "view",
      "type": "function"
    },
    {
      "inputs": [],
      "name": "PHOTO_MINTER_ROLE",
      "outputs": [
        {
          "internalType": "bytes32",
          "name": "",
          "type": "bytes32"
        }
      ],
      "stateMutability": "view",
      "type": "function"
    },
    {
      "inputs": [],
      "name": "START_DATE",
      "outputs": [
        {
          "internalType": "uint256",
          "name": "",
          "type": "uint256"
        }
      ],
      "stateMutability": "view",
      "type": "function"
    },
    {
      "inputs": [],
      "name": "URI_UPDATER_ROLE",
      "outputs": [
        {
          "internalType": "bytes32",
          "name": "",
          "type": "bytes32"
        }
      ],
      "stateMutability": "view",
      "type": "function"
    },
    {
      "inputs": [
        {
          "internalType": "address",
          "name": "account",
          "type": "address"
        },
        {
          "internalType": "uint256",
          "name": "id",
          "type": "uint256"
        }
      ],
      "name": "balanceOf",
      "outputs": [
        {
          "internalType": "uint256",
          "name": "",
          "type": "uint256"
        }
      ],
      "stateMutability": "view",
      "type": "function"
    },
    {
      "inputs": [
        {
          "internalType": "address[]",
          "name": "accounts",
          "type": "address[]"
        },
        {
          "internalType": "uint256[]",
          "name": "ids",
          "type": "uint256[]"
        }
      ],
      "name": "balanceOfBatch",
      "outputs": [
        {
          "internalType": "uint256[]",
          "name": "",
          "type": "uint256[]"
        }
      ],
      "stateMutability": "view",
      "type": "function"
    },
    {
      "inputs": [
        {
          "internalType": "uint256",
          "name": "tokenId",
          "type": "uint256"
        }
      ],
      "name": "exists",
      "outputs": [
        {
          "internalType": "bool",
          "name": "",
          "type": "bool"
        }
      ],
      "stateMutability": "view",
      "type": "function"
    },
    {
      "inputs": [
        {
          "internalType": "uint256",
          "name": "numberOfTokens",
          "type": "uint256"
        }
      ],
      "name": "getMintRangeInput",
      "outputs": [
        {
          "internalType": "uint256[]",
          "name": "",
          "type": "uint256[]"
        },
        {
          "internalType": "uint256[][]",
          "name": "",
          "type": "uint256[][]"
        },
        {
          "internalType": "bytes32",
          "name": "",
          "type": "bytes32"
        }
      ],
      "stateMutability": "view",
      "type": "function"
    },
    {
      "inputs": [
        {
          "internalType": "bytes32",
          "name": "role",
          "type": "bytes32"
        }
      ],
      "name": "getRoleAdmin",
      "outputs": [
        {
          "internalType": "bytes32",
          "name": "",
          "type": "bytes32"
        }
      ],
      "stateMutability": "view",
      "type": "function"
    },
    {
      "inputs": [
        {
          "internalType": "bytes32",
          "name": "role",
          "type": "bytes32"
        },
        {
          "internalType": "address",
          "name": "account",
          "type": "address"
        }
      ],
      "name": "grantRole",
      "outputs": [],
      "stateMutability": "nonpayable",
      "type": "function"
    },
    {
      "inputs": [
        {
          "internalType": "bytes32",
          "name": "role",
          "type": "bytes32"
        },
        {
          "internalType": "address",
          "name": "account",
          "type": "address"
        }
      ],
      "name": "hasRole",
      "outputs": [
        {
          "internalType": "bool",
          "name": "",
          "type": "bool"
        }
      ],
      "stateMutability": "view",
      "type": "function"
    },
    {
      "inputs": [],
      "name": "initialHolders",
      "outputs": [
        {
          "internalType": "address[]",
          "name": "",
          "type": "address[]"
        }
      ],
      "stateMutability": "view",
      "type": "function"
    },
    {
      "inputs": [
        {
          "internalType": "uint256",
          "name": "tokenId",
          "type": "uint256"
        }
      ],
      "name": "initialHolders",
      "outputs": [
        {
          "internalType": "address[]",
          "name": "",
          "type": "address[]"
        }
      ],
      "stateMutability": "view",
      "type": "function"
    },
    {
      "inputs": [],
      "name": "initialHolderRanges",
      "outputs": [
        {
          "internalType": "address[][]",
          "name": "",
          "type": "address[][]"
        },
        {
          "internalType": "uint256[]",
          "name": "",
          "type": "uint256[]"
        }
      ],
      "stateMutability": "view",
      "type": "function"
    },
    {
      "inputs": [],
      "name": "initialSupply",
      "outputs": [
        {
          "internalType": "uint256[]",
          "name": "",
          "type": "uint256[]"
        }
      ],
      "stateMutability": "view",
      "type": "function"
    },
    {
      "inputs": [
        {
          "internalType": "uint256",
          "name": "tokenId",
          "type": "uint256"
        }
      ],
      "name": "initialSupply",
      "outputs": [
        {
          "internalType": "uint256[]",
          "name": "",
          "type": "uint256[]"
        }
      ],
      "stateMutability": "view",
      "type": "function"
    },
    {
      "inputs": [
        {
          "internalType": "address",
          "name": "account",
          "type": "address"
        },
        {
          "internalType": "address",
          "name": "operator",
          "type": "address"
        }
      ],
      "name": "isApprovedForAll",
      "outputs": [
        {
          "internalType": "bool",
          "name": "",
          "type": "bool"
        }
      ],
      "stateMutability": "view",
      "type": "function"
    },
    {
      "inputs": [
        {
          "internalType": "uint256",
          "name": "",
          "type": "uint256"
        },
        {
          "internalType": "address",
          "name": "",
          "type": "address"
        }
      ],
      "name": "isBalanceInitialized",
      "outputs": [
        {
          "internalType": "bool",
          "name": "",
          "type": "bool"
        }
      ],
      "stateMutability": "view",
      "type": "function"
    },
    {
      "inputs": [
        {
          "internalType": "address",
          "name": "account",
          "type": "address"
        },
        {
          "internalType": "uint256",
          "name": "tokenId",
          "type": "uint256"
        }
      ],
      "name": "isInitialHolderOf",
      "outputs": [
        {
          "internalType": "bool",
          "name": "",
          "type": "bool"
        }
      ],
      "stateMutability": "view",
      "type": "function"
    },
    {
      "inputs": [],
      "name": "isInitialHoldersRangeUpdatePermanentlyDisabled",
      "outputs": [
        {
          "internalType": "bool",
          "name": "",
          "type": "bool"
        }
      ],
      "stateMutability": "view",
      "type": "function"
    },
    {
      "inputs": [
        {
          "internalType": "uint256",
          "name": "",
          "type": "uint256"
        }
      ],
      "name": "isManualMint",
      "outputs": [
        {
          "internalType": "bool",
          "name": "",
          "type": "bool"
        }
      ],
      "stateMutability": "view",
      "type": "function"
    },
    {
      "inputs": [],
      "name": "isOperatorFilterPermanentlyDisabled",
      "outputs": [
        {
          "internalType": "bool",
          "name": "",
          "type": "bool"
        }
      ],
      "stateMutability": "view",
      "type": "function"
    },
    {
      "inputs": [],
      "name": "isZeroLocked",
      "outputs": [
        {
          "internalType": "bool",
          "name": "",
          "type": "bool"
        }
      ],
      "stateMutability": "view",
      "type": "function"
    },
    {
      "inputs": [],
      "name": "isZeroMinted",
      "outputs": [
        {
          "internalType": "bool",
          "name": "",
          "type": "bool"
        }
      ],
      "stateMutability": "view",
      "type": "function"
    },
    {
      "inputs": [],
      "name": "lastRangeTokenIdMinted",
      "outputs": [
        {
          "internalType": "uint256",
          "name": "",
          "type": "uint256"
        }
      ],
      "stateMutability": "view",
      "type": "function"
    },
    {
      "inputs": [],
      "name": "lastRangeTokenIdWithLockedInitialHolders",
      "outputs": [
        {
          "internalType": "uint256",
          "name": "",
          "type": "uint256"
        }
      ],
      "stateMutability": "view",
      "type": "function"
    },
    {
      "inputs": [],
      "name": "lastRangeTokenIdWithPermanentUri",
      "outputs": [
        {
          "internalType": "uint256",
          "name": "",
          "type": "uint256"
        }
      ],
      "stateMutability": "view",
      "type": "function"
    },
    {
      "inputs": [
        {
          "internalType": "address",
          "name": "to",
          "type": "address"
        },
        {
          "internalType": "uint256",
          "name": "amount",
          "type": "uint256"
        }
      ],
      "name": "mintClaims",
      "outputs": [],
      "stateMutability": "nonpayable",
      "type": "function"
    },
    {
      "inputs": [
        {
          "internalType": "uint256[]",
          "name": "ids",
          "type": "uint256[]"
        },
        {
          "internalType": "uint256[][]",
          "name": "amounts",
          "type": "uint256[][]"
        },
        {
          "internalType": "bytes32",
          "name": "checkSum",
          "type": "bytes32"
        }
      ],
      "name": "mintPhotos",
      "outputs": [],
      "stateMutability": "nonpayable",
      "type": "function"
    },
    {
      "inputs": [],
      "name": "operatorFilterRegistry",
      "outputs": [
        {
          "internalType": "address",
          "name": "",
          "type": "address"
        }
      ],
      "stateMutability": "view",
      "type": "function"
    },
    {
      "inputs": [],
      "name": "owner",
      "outputs": [
        {
          "internalType": "address",
          "name": "",
          "type": "address"
        }
      ],
      "stateMutability": "view",
      "type": "function"
    },
    {
      "inputs": [],
      "name": "pause",
      "outputs": [],
      "stateMutability": "nonpayable",
      "type": "function"
    },
    {
      "inputs": [],
      "name": "paused",
      "outputs": [
        {
          "internalType": "bool",
          "name": "",
          "type": "bool"
        }
      ],
      "stateMutability": "view",
      "type": "function"
    },
    {
      "inputs": [],
      "name": "permanentBaseUri",
      "outputs": [
        {
          "internalType": "string",
          "name": "",
          "type": "string"
        }
      ],
      "stateMutability": "view",
      "type": "function"
    },
    {
      "inputs": [],
      "name": "permanentBaseUriRanges",
      "outputs": [
        {
          "internalType": "string[]",
          "name": "",
          "type": "string[]"
        }
      ],
      "stateMutability": "view",
      "type": "function"
    },
    {
      "inputs": [],
      "name": "permanentlyDisableInitialHoldersRangeUpdate",
      "outputs": [],
      "stateMutability": "nonpayable",
      "type": "function"
    },
    {
      "inputs": [],
      "name": "permanentlyDisableOperatorFilter",
      "outputs": [],
      "stateMutability": "nonpayable",
      "type": "function"
    },
    {
      "inputs": [],
      "name": "proxyBaseUri",
      "outputs": [
        {
          "internalType": "string",
          "name": "",
          "type": "string"
        }
      ],
      "stateMutability": "view",
      "type": "function"
    },
    {
      "inputs": [
        {
          "internalType": "uint256",
          "name": "tokenId",
          "type": "uint256"
        }
      ],
      "name": "redeemClaim",
      "outputs": [],
      "stateMutability": "nonpayable",
      "type": "function"
    },
    {
      "inputs": [
        {
          "internalType": "uint256[]",
          "name": "tokenIds",
          "type": "uint256[]"
        },
        {
          "internalType": "uint256[]",
          "name": "amounts",
          "type": "uint256[]"
        }
      ],
      "name": "redeemClaimBatch",
      "outputs": [],
      "stateMutability": "nonpayable",
      "type": "function"
    },
    {
      "inputs": [
        {
          "internalType": "bytes32",
          "name": "role",
          "type": "bytes32"
        },
        {
          "internalType": "address",
          "name": "account",
          "type": "address"
        }
      ],
      "name": "renounceRole",
      "outputs": [],
      "stateMutability": "nonpayable",
      "type": "function"
    },
    {
      "inputs": [
        {
          "internalType": "uint256",
          "name": "tokenId",
          "type": "uint256"
        }
      ],
      "name": "resetTokenRoyalty",
      "outputs": [],
      "stateMutability": "nonpayable",
      "type": "function"
    },
    {
      "inputs": [
        {
          "internalType": "bytes32",
          "name": "role",
          "type": "bytes32"
        },
        {
          "internalType": "address",
          "name": "account",
          "type": "address"
        }
      ],
      "name": "revokeRole",
      "outputs": [],
      "stateMutability": "nonpayable",
      "type": "function"
    },
    {
      "inputs": [
        {
          "internalType": "uint256",
          "name": "_tokenId",
          "type": "uint256"
        },
        {
          "internalType": "uint256",
          "name": "_salePrice",
          "type": "uint256"
        }
      ],
      "name": "royaltyInfo",
      "outputs": [
        {
          "internalType": "address",
          "name": "",
          "type": "address"
        },
        {
          "internalType": "uint256",
          "name": "",
          "type": "uint256"
        }
      ],
      "stateMutability": "view",
      "type": "function"
    },
    {
      "inputs": [
        {
          "internalType": "address",
          "name": "from",
          "type": "address"
        },
        {
          "internalType": "address",
          "name": "to",
          "type": "address"
        },
        {
          "internalType": "uint256[]",
          "name": "ids",
          "type": "uint256[]"
        },
        {
          "internalType": "uint256[]",
          "name": "amounts",
          "type": "uint256[]"
        },
        {
          "internalType": "bytes",
          "name": "data",
          "type": "bytes"
        }
      ],
      "name": "safeBatchTransferFrom",
      "outputs": [],
      "stateMutability": "nonpayable",
      "type": "function"
    },
    {
      "inputs": [
        {
          "internalType": "address",
          "name": "from",
          "type": "address"
        },
        {
          "internalType": "address",
          "name": "to",
          "type": "address"
        },
        {
          "internalType": "uint256",
          "name": "tokenId",
          "type": "uint256"
        },
        {
          "internalType": "uint256",
          "name": "amount",
          "type": "uint256"
        },
        {
          "internalType": "bytes",
          "name": "data",
          "type": "bytes"
        }
      ],
      "name": "safeTransferFrom",
      "outputs": [],
      "stateMutability": "nonpayable",
      "type": "function"
    },
    {
      "inputs": [
        {
          "internalType": "address",
          "name": "operator",
          "type": "address"
        },
        {
          "internalType": "bool",
          "name": "approved",
          "type": "bool"
        }
      ],
      "name": "setApprovalForAll",
      "outputs": [],
      "stateMutability": "nonpayable",
      "type": "function"
    },
    {
      "inputs": [
        {
          "internalType": "address",
          "name": "receiver",
          "type": "address"
        },
        {
          "internalType": "uint96",
          "name": "feeNumerator",
          "type": "uint96"
        }
      ],
      "name": "setDefaultRoyalty",
      "outputs": [],
      "stateMutability": "nonpayable",
      "type": "function"
    },
    {
      "inputs": [
        {
          "internalType": "address",
          "name": "treasury",
          "type": "address"
        },
        {
          "internalType": "address",
          "name": "vault",
          "type": "address"
        }
      ],
      "name": "setInitialHolders",
      "outputs": [],
      "stateMutability": "nonpayable",
      "type": "function"
    },
    {
      "inputs": [
        {
          "internalType": "uint256[]",
          "name": "newInitialSupply",
          "type": "uint256[]"
        }
      ],
      "name": "setInitialSupply",
      "outputs": [],
      "stateMutability": "nonpayable",
      "type": "function"
    },
    {
      "inputs": [
        {
          "internalType": "uint256",
          "name": "tokenId",
          "type": "uint256"
        }
      ],
      "name": "setLockInitialHoldersUpTo",
      "outputs": [],
      "stateMutability": "nonpayable",
      "type": "function"
    },
    {
      "inputs": [
        {
          "internalType": "address",
          "name": "_operatorFilterRegistry",
          "type": "address"
        }
      ],
      "name": "setOperatorFilterRegistry",
      "outputs": [],
      "stateMutability": "nonpayable",
      "type": "function"
    },
    {
      "inputs": [
        {
          "internalType": "address",
          "name": "newOwner",
          "type": "address"
        }
      ],
      "name": "setOwner",
      "outputs": [],
      "stateMutability": "nonpayable",
      "type": "function"
    },
    {
      "inputs": [
        {
          "internalType": "string",
          "name": "newUri",
          "type": "string"
        },
        {
          "internalType": "uint256",
          "name": "validUpToTokenId",
          "type": "uint256"
        }
      ],
      "name": "setPermanentBaseUriUpTo",
      "outputs": [],
      "stateMutability": "nonpayable",
      "type": "function"
    },
    {
      "inputs": [
        {
          "internalType": "string",
          "name": "newProxyUri",
          "type": "string"
        }
      ],
      "name": "setProxyBaseUri",
      "outputs": [],
      "stateMutability": "nonpayable",
      "type": "function"
    },
    {
      "inputs": [
        {
          "internalType": "uint256",
          "name": "tokenId",
          "type": "uint256"
        },
        {
          "internalType": "address",
          "name": "receiver",
          "type": "address"
        },
        {
          "internalType": "uint96",
          "name": "feeNumerator",
          "type": "uint96"
        }
      ],
      "name": "setTokenRoyalty",
      "outputs": [],
      "stateMutability": "nonpayable",
      "type": "function"
    },
    {
      "inputs": [
        {
          "internalType": "bytes4",
          "name": "interfaceId",
          "type": "bytes4"
        }
      ],
      "name": "supportsInterface",
      "outputs": [
        {
          "internalType": "bool",
          "name": "",
          "type": "bool"
        }
      ],
      "stateMutability": "view",
      "type": "function"
    },
    {
      "inputs": [
        {
          "internalType": "uint256",
          "name": "year",
          "type": "uint256"
        },
        {
          "internalType": "uint256",
          "name": "month",
          "type": "uint256"
        },
        {
          "internalType": "uint256",
          "name": "day",
          "type": "uint256"
        }
      ],
      "name": "tokenIdFromDate",
      "outputs": [
        {
          "internalType": "uint256",
          "name": "tokenId",
          "type": "uint256"
        }
      ],
      "stateMutability": "pure",
      "type": "function"
    },
    {
      "inputs": [
        {
          "internalType": "uint256",
          "name": "tokenId",
          "type": "uint256"
        }
      ],
      "name": "tokenIdToDate",
      "outputs": [
        {
          "internalType": "uint256",
          "name": "year",
          "type": "uint256"
        },
        {
          "internalType": "uint256",
          "name": "month",
          "type": "uint256"
        },
        {
          "internalType": "uint256",
          "name": "day",
          "type": "uint256"
        }
      ],
      "stateMutability": "pure",
      "type": "function"
    },
    {
      "inputs": [
        {
          "internalType": "uint256",
          "name": "tokenId",
          "type": "uint256"
        }
      ],
      "name": "totalSupply",
      "outputs": [
        {
          "internalType": "uint256",
          "name": "",
          "type": "uint256"
        }
      ],
      "stateMutability": "view",
      "type": "function"
    },
    {
      "inputs": [],
      "name": "unpause",
      "outputs": [],
      "stateMutability": "nonpayable",
      "type": "function"
    },
    {
      "inputs": [
        {
          "internalType": "address[]",
          "name": "fromAddresses",
          "type": "address[]"
        },
        {
          "internalType": "address[]",
          "name": "toAddresses",
          "type": "address[]"
        },
        {
          "internalType": "uint256[][]",
          "name": "ids",
          "type": "uint256[][]"
        },
        {
          "internalType": "uint256[][]",
          "name": "amounts",
          "type": "uint256[][]"
        },
        {
          "internalType": "address[][]",
          "name": "newInitialHolders",
          "type": "address[][]"
        },
        {
          "internalType": "uint256[]",
          "name": "newInitialHoldersRange",
          "type": "uint256[]"
        },
        {
          "internalType": "bytes32",
          "name": "inputChecksum",
          "type": "bytes32"
        }
      ],
      "name": "updateInitialHoldersRange",
      "outputs": [],
      "stateMutability": "nonpayable",
      "type": "function"
    },
    {
      "inputs": [
        {
          "internalType": "uint256",
          "name": "tokenId",
          "type": "uint256"
        }
      ],
      "name": "uri",
      "outputs": [
        {
          "internalType": "string",
          "name": "",
          "type": "string"
        }
      ],
      "stateMutability": "view",
      "type": "function"
    },
    {
      "inputs": [
        {
          "internalType": "address[]",
          "name": "fromAddresses",
          "type": "address[]"
        },
        {
          "internalType": "address[]",
          "name": "toAddresses",
          "type": "address[]"
        },
        {
          "internalType": "uint256[][]",
          "name": "ids",
          "type": "uint256[][]"
        },
        {
          "internalType": "uint256[][]",
          "name": "amounts",
          "type": "uint256[][]"
        },
        {
          "internalType": "address[][]",
          "name": "newInitialHolders",
          "type": "address[][]"
        },
        {
          "internalType": "uint256[]",
          "name": "newInitialHoldersRange",
          "type": "uint256[]"
        }
      ],
      "name": "verifyUpdateInitialHolderRangesInput",
      "outputs": [
        {
          "internalType": "bytes32",
          "name": "",
          "type": "bytes32"
        }
      ],
      "stateMutability": "view",
      "type": "function"
    }
  ],
  "bytecode": "0x608060405260128054610100600160a81b0319166eaaeb6d7670e522a718067333cd4e001790553480156200003357600080fd5b5060405162007a0338038062007a0383398101604081905262000056916200156e565b6040805160208101909152600081528190620000728162000361565b5060088054600181810190925560007ff3f7a9fe364faab93b216da50a3214154f22a0a2b415b23a84c8169e8b636ee390910181905560078054928301815590528151620000e8917fa66cc928b5edb82af9bd49922954155ab7b0942694bea4ce44661d9a8736c688019060208401906200133d565b5060005b815181101562000183576000808052600960205282516001917fec8156718a8372b1db44bb411437d0870f3e3790d4a08526d024ce1b0b668f6b918590859081106200013c576200013c62001686565b6020908102919091018101516001600160a01b03168252810191909152604001600020805460ff1916911515919091179055806200017a81620016b2565b915050620000ec565b5050600b805461ff00191690556200019d6000336200037a565b620001b8600080516020620079e3833981519152336200037a565b620001e47f4554a81dfdf3a5f2ea0172098a3ce8d56e9fe380995cb3f1853c4bae99f358af336200037a565b620002107f6ee315d4faf1b0c431d0ecf2a43a011e467519ee93e96ae9adec9f0a251fe810336200037a565b6200021c600162000404565b60148054600181810190925560007fce6d7b5282bd9a3661ae061feed1dbda4e52ab073b1f9285be6e155d9c38d4ec90910181905560408051808201909152600280825260036020830152601380549485018155909252620002a1927f66de8ffda797e3de9c05e8fc57b3bf0ec28a930d40b0d285d93c06501cf6a0900191620013a7565b50601580546001810182556000919091528251620002e7917f55f448fdea98c4d29eb340757ef0a66cd03dbb9538908a6a81d96026b71ec47501906020850190620013ea565b508251620002fd906016906020860190620013ea565b5060188054610100600160a81b0319163361010081029190911790915562000328906101f4620004de565b620003588160008151811062000342576200034262001686565b6020026020010151600a620005e360201b60201c565b50505062001a66565b805162000376906002906020840190620013ea565b5050565b62000386828262000627565b620003765760008281526011602090815260408083206001600160a01b03851684529091529020805460ff19166001179055620003c03390565b6001600160a01b0316816001600160a01b0316837f2f8788117e7eff1d82e926ec794901d17c78024a50270940304540a733656f0d60405160405180910390a45050565b80156200048c57601254604051633e9f1edf60e11b8152306004820152733cc6cdda760b79bafa08df41ecfa224f810dceb660248201526101009091046001600160a01b031690637d3e3dbe906044015b600060405180830381600087803b1580156200047057600080fd5b505af115801562000485573d6000803e3d6000fd5b5050505050565b60125460405163a0af290360e01b8152306004820152733cc6cdda760b79bafa08df41ecfa224f810dceb660248201526101009091046001600160a01b03169063a0af29039060440162000455565b50565b6127106001600160601b0382161115620005525760405162461bcd60e51b815260206004820152602a60248201527f455243323938313a20726f79616c7479206665652077696c6c206578636565646044820152692073616c65507269636560b01b60648201526084015b60405180910390fd5b6001600160a01b038216620005aa5760405162461bcd60e51b815260206004820152601960248201527f455243323938313a20696e76616c696420726563656976657200000000000000604482015260640162000549565b604080518082019091526001600160a01b039092168083526001600160601b039091166020909201829052600160a01b90910217600f55565b600080516020620079e3833981519152620005fe8162000654565b6200062283600084604051806020016040528060008152506200066060201b60201c565b505050565b60008281526011602090815260408083206001600160a01b038516845290915290205460ff165b92915050565b620004db81336200078f565b6001600160a01b038416620006c25760405162461bcd60e51b815260206004820152602160248201527f455243313135353a206d696e7420746f20746865207a65726f206164647265736044820152607360f81b606482015260840162000549565b336000620006d08562000812565b90506000620006df8562000812565b9050620006f28360008985858962000860565b6000868152602081815260408083206001600160a01b038b1684529091528120805487929062000724908490620016ce565b909155505060408051878152602081018790526001600160a01b03808a1692600092918716917fc3d58168c5ae7397731d063d5bbf3d657854427343f4c083240f7aacaa2d0f62910160405180910390a462000786836000898989896200088d565b50505050505050565b6200079b828262000627565b6200037657620007c1816001600160a01b0316601462000a5960201b6200276d1760201c565b620007d78360206200276d62000a59821b17811c565b604051602001620007ea929190620016e9565b60408051601f198184030181529082905262461bcd60e51b8252620005499160040162001790565b604080516001808252818301909252606091600091906020808301908036833701905050905082816000815181106200084f576200084f62001686565b602090810291909101015292915050565b6200086a62000c19565b6200088586868686868662000c6f60201b6200290f1760201c565b505050505050565b620008ac846001600160a01b031662000ddc60201b62002a4a1760201c565b15620008855760405163f23a6e6160e01b81526001600160a01b0385169063f23a6e6190620008e89089908990889088908890600401620017a5565b6020604051808303816000875af192505050801562000926575060408051601f3d908101601f191682019092526200092391810190620017ec565b60015b620009e6576200093562001818565b806308c379a0036200097557506200094c62001835565b8062000959575062000977565b8060405162461bcd60e51b815260040162000549919062001790565b505b60405162461bcd60e51b815260206004820152603460248201527f455243313135353a207472616e7366657220746f206e6f6e204552433131353560448201527f526563656976657220696d706c656d656e746572000000000000000000000000606482015260840162000549565b6001600160e01b0319811663f23a6e6160e01b14620007865760405162461bcd60e51b815260206004820152602860248201527f455243313135353a204552433131353552656365697665722072656a656374656044820152676420746f6b656e7360c01b606482015260840162000549565b6060600062000a6a836002620018c4565b62000a77906002620016ce565b6001600160401b0381111562000a915762000a916200147e565b6040519080825280601f01601f19166020018201604052801562000abc576020820181803683370190505b509050600360fc1b8160008151811062000ada5762000ada62001686565b60200101906001600160f81b031916908160001a905350600f60fb1b8160018151811062000b0c5762000b0c62001686565b60200101906001600160f81b031916908160001a905350600062000b32846002620018c4565b62000b3f906001620016ce565b90505b600181111562000bc1576f181899199a1a9b1b9c1cb0b131b232b360811b85600f166010811062000b775762000b7762001686565b1a60f81b82828151811062000b905762000b9062001686565b60200101906001600160f81b031916908160001a90535060049490941c9362000bb981620018e6565b905062000b42565b50831562000c125760405162461bcd60e51b815260206004820181905260248201527f537472696e67733a20686578206c656e67746820696e73756666696369656e74604482015260640162000549565b9392505050565b62000c2b600b54610100900460ff1690565b1562000c6d5760405162461bcd60e51b815260206004820152601060248201526f14185d5cd8589b194e881c185d5cd95960821b604482015260640162000549565b565b60005b835181101562000dc057600084828151811062000c935762000c9362001686565b6020026020010151905060006001600160a01b0316876001600160a01b03160362000d3e5762000cc38162000deb565b62000cf7576000818152600560205260408120805460ff19166001179055600680549162000cf183620016b2565b91905055505b83828151811062000d0c5762000d0c62001686565b602002602001015160046000838152602001908152602001600020600082825462000d38919062001900565b90915550505b6001600160a01b03861662000d945783828151811062000d625762000d6262001686565b602002602001015160046000838152602001908152602001600020600082825462000d8e919062001947565b90915550505b62000da0878262000e1c565b62000dac868262000e1c565b5062000db881620016b2565b905062000c72565b50620008858686868686866200088560201b620017371760201c565b6001600160a01b03163b151590565b600062000df88262000f00565b806200064e575060008281526005602052604090205460ff16151560011492915050565b6001600160a01b0382161580159062000e3b575062000e3b8162000f00565b801562000e6b575060008181526003602090815260408083206001600160a01b038616845290915290205460ff16155b801562000e87575060008181526005602052604090205460ff16155b801562000e9b575062000e9b828262000f1a565b156200037657600062000eaf838362000fb0565b90508015620006225760008281526003602090815260408083206001600160a01b038716808552908352818420805460ff191660011790558584528383528184209084529091529020819055505050565b600b5460009060ff1680156200064e575050600a54101590565b60008062000f81600880548060200260200160405190810160405280929190818152602001828054801562000f6f57602002820191906000526020600020905b81548152602001906001019080831162000f5a575b5050505050846200111b60201b60201c565b60009081526009602090815260408083206001600160a01b038816845290915290205460ff1691505092915050565b60008062000fbe8362001172565b90508060008151811062000fd65762000fd662001686565b60200260200101516001600160a01b0316846001600160a01b031603620010cf57600062001004846200125d565b90506000816000815181106200101e576200101e62001686565b6020026020010151826000815181106200103c576200103c62001686565b6020026020010151836001815181106200105a576200105a62001686565b60200260200101516200106e91906200198c565b6200107b906001620016ce565b8630856040516020016200109293929190620019a6565b6040516020818303038152906040528051906020012060001c620010b7919062001a07565b620010c39190620016ce565b93506200064e92505050565b80600181518110620010e557620010e562001686565b60200260200101516001600160a01b0316846001600160a01b031603620011115760019150506200064e565b5060009392505050565b600080600184516200112e91906200198c565b90505b83818151811062001146576200114662001686565b602002602001015183106200115d5790506200064e565b806200116981620018e6565b91505062001131565b60606000620011d8600880548060200260200160405190810160405280929190818152602001828054801562000f6f576020028201919060005260206000209081548152602001906001019080831162000f5a575050505050846200111b60201b60201c565b905060078181548110620011f057620011f062001686565b906000526020600020018054806020026020016040519081016040528092919081815260200182805480156200125057602002820191906000526020600020905b81546001600160a01b0316815260019091019060200180831162001231575b5050505050915050919050565b60606000620012c3601480548060200260200160405190810160405280929190818152602001828054801562000f6f576020028201919060005260206000209081548152602001906001019080831162000f5a575050505050846200111b60201b60201c565b905060138181548110620012db57620012db62001686565b906000526020600020018054806020026020016040519081016040528092919081815260200182805480156200125057602002820191906000526020600020905b8154815260200190600101908083116200131c575050505050915050919050565b82805482825590600052602060002090810192821562001395579160200282015b828111156200139557825182546001600160a01b0319166001600160a01b039091161782556020909201916001909101906200135e565b50620013a392915062001467565b5090565b82805482825590600052602060002090810192821562001395579160200282015b8281111562001395578251829060ff16905591602001919060010190620013c8565b828054620013f89062001a2a565b90600052602060002090601f0160209004810192826200141c576000855562001395565b82601f106200143757805160ff191683800117855562001395565b8280016001018555821562001395579182015b82811115620013955782518255916020019190600101906200144a565b5b80821115620013a3576000815560010162001468565b634e487b7160e01b600052604160045260246000fd5b601f8201601f191681016001600160401b0381118282101715620014bc57620014bc6200147e565b6040525050565b60005b83811015620014e0578181015183820152602001620014c6565b83811115620014f0576000848401525b50505050565b600082601f8301126200150857600080fd5b81516001600160401b038111156200152457620015246200147e565b6040516200153d601f8301601f19166020018262001494565b8181528460208386010111156200155357600080fd5b62001566826020830160208701620014c3565b949350505050565b6000806000606084860312156200158457600080fd5b83516001600160401b03808211156200159c57600080fd5b620015aa87838801620014f6565b9450602091508186015181811115620015c257600080fd5b620015d088828901620014f6565b945050604086015181811115620015e657600080fd5b8601601f81018813620015f857600080fd5b8051828111156200160d576200160d6200147e565b8060051b9250604051620016248585018262001494565b8181529282018401928481018a8511156200163e57600080fd5b928501925b848410156200167657835192506001600160a01b0383168314620016675760008081fd5b82815292850192850162001643565b5080955050505050509250925092565b634e487b7160e01b600052603260045260246000fd5b634e487b7160e01b600052601160045260246000fd5b600060018201620016c757620016c76200169c565b5060010190565b60008219821115620016e457620016e46200169c565b500190565b7f416363657373436f6e74726f6c3a206163636f756e742000000000000000000081526000835162001723816017850160208801620014c3565b7001034b99036b4b9b9b4b733903937b6329607d1b601791840191820152835162001756816028840160208801620014c3565b01602801949350505050565b600081518084526200177c816020860160208601620014c3565b601f01601f19169290920160200192915050565b60208152600062000c12602083018462001762565b6001600160a01b03868116825285166020820152604081018490526060810183905260a060808201819052600090620017e19083018462001762565b979650505050505050565b600060208284031215620017ff57600080fd5b81516001600160e01b03198116811462000c1257600080fd5b600060033d1115620018325760046000803e5060005160e01c5b90565b600060443d1015620018445790565b6040516003193d81016004833e81513d6001600160401b0380831160248401831017156200187457505050505090565b82850191508151818111156200188d5750505050505090565b843d8701016020828501011115620018a85750505050505090565b620018b96020828601018762001494565b509095945050505050565b6000816000190483118215151615620018e157620018e16200169c565b500290565b600081620018f857620018f86200169c565b506000190190565b600080821280156001600160ff1b03849003851316156200192557620019256200169c565b600160ff1b83900384128116156200194157620019416200169c565b50500190565b60008083128015600160ff1b8501841216156200196857620019686200169c565b6001600160ff1b03840183138116156200198657620019866200169c565b50500390565b600082821015620019a157620019a16200169c565b500390565b8381526001600160a01b0383166020808301919091526060604083018190528351908301819052600091848101916080850190845b81811015620019f957845183529383019391830191600101620019db565b509098975050505050505050565b60008262001a2557634e487b7160e01b600052601260045260246000fd5b500690565b600181811c9082168062001a3f57607f821691505b60208210810362001a6057634e487b7160e01b600052602260045260246000fd5b50919050565b615f6d8062001a766000396000f3fe608060405234801561001057600080fd5b50600436106103e55760003560e01c80634f558e791161020a578063a4dcfddc11610125578063cc1b371d116100b8578063e2f010c811610087578063e2f010c8146108d9578063e985e9c5146108ec578063f242432a14610928578063f304d1821461093b578063f9663f791461096257600080fd5b8063cc1b371d14610893578063cd03d493146108a6578063d547741f146108b3578063e06d94c3146108c657600080fd5b8063bd85b039116100f4578063bd85b03914610858578063bf1dc25a1461086b578063c399b10314610878578063c3b719a01461088057600080fd5b8063a4dcfddc146107fd578063b0ccc31e14610810578063b79c2e5614610828578063b8dd9c1a1461084f57600080fd5b8063877664e01161019d57806392425b5b1161016c57806392425b5b146107ca578063a217fddf1461066e578063a224f0e4146107d7578063a22cb465146107ea57600080fd5b8063877664e0146107715780638a616bc01461077a5780638da5cb5b1461078d57806391d14854146107b757600080fd5b80635ab470a4116101d95780635ab470a41461073b5780635c975abb146107445780636454e9e8146107545780638456cb591461076957600080fd5b80634f558e79146106c557806354b5b4f4146106d8578063566454c5146106fa5780635944c7531461072857600080fd5b80632eb2c2d611610305578063378dc3dc116102985780634317330811610267578063431733081461066e57806348299fae146106765780634996527c146106895780634cea66521461069c5780634e1273f4146106b257600080fd5b8063378dc3dc146106105780633b65b0f3146106255780633c438b9a146106385780633f4ba83a1461066657600080fd5b806336568abe116102d457806336568abe146105d757806336fad657146105ea578063372ab872146105f2578063372c65331461060557600080fd5b80632eb2c2d6146105965780632f2ff15d146105a957806332fde6af146105bc5780633500e4a9146105c457600080fd5b80631eaaee281161037d5780632b0cc0721161034c5780632b0cc072146105265780632bad3e5e146105395780632c49a9e0146105605780632cda62c51461058357600080fd5b80631eaaee28146104a9578063248a9ca3146104be5780632815eccb146104e15780632a55205a146104f457600080fd5b8063110fc628116103b9578063110fc628146104685780631294966f1461047b57806313af40351461048e578063194fd14c146104a157600080fd5b8062fdd58e146103ea57806301ffc9a71461041057806304634d8d146104335780630e89341c14610448575b600080fd5b6103fd6103f8366004614af8565b61096f565b6040519081526020015b60405180910390f35b61042361041e366004614b38565b610a82565b6040519015158152602001610407565b610446610441366004614b6c565b610a8d565b005b61045b610456366004614b9f565b610aaf565b6040516104079190614c10565b610446610476366004614af8565b610c1c565b610446610489366004614e7a565b610c62565b61044661049c366004614f79565b610c96565b61045b610cd2565b6104b1610d64565b6040516104079190614fd8565b6103fd6104cc366004614b9f565b60009081526011602052604090206001015490565b6103fd6104ef366004614feb565b610def565b610507610502366004615017565b610fb6565b604080516001600160a01b039093168352602083019190915201610407565b6103fd610534366004615039565b611062565b6103fd7fdd324c025d24345c952a385e64904e69a6fb709416adae66728d9cee7814824481565b61042361056e366004614b9f565b60056020526000908152604090205460ff1681565b610423610591366004614af8565b611684565b6104466105a43660046151a0565b611710565b6104466105b7366004615249565b61173f565b610446611764565b6104466105d2366004614b9f565b611792565b6104466105e5366004615249565b6117e7565b61045b611861565b61044661060036600461526c565b61189a565b6103fd63630ff60081565b61061861199c565b60405161040791906152e0565b610446610633366004614b9f565b611a1d565b61064b610646366004614b9f565b611a31565b60408051938452602084019290925290820152606001610407565b610446611aa9565b6103fd600081565b6104466106843660046152f3565b611abc565b610446610697366004614f79565b611af7565b6106a4611b13565b6040516104079291906153b4565b6106186106c03660046153d9565b611c11565b6104236106d3366004614b9f565b611d3a565b6106eb6106e6366004614b9f565b611d68565b60405161040793929190615484565b610423610708366004615249565b600360209081526000928352604080842090915290825290205460ff1681565b6104466107363660046154ba565b611fee565b6103fd600d5481565b600b54610100900460ff16610423565b61075c61200c565b60405161040791906154f6565b6104466120e5565b6103fd600a5481565b610446610788366004614b9f565b6120f8565b60185461010090046001600160a01b03165b6040516001600160a01b039091168152602001610407565b6104236107c5366004615249565b61211d565b6018546104239060ff1681565b6104466107e5366004615558565b612148565b6104466107f836600461559a565b61218d565b61044661080b3660046155d1565b6121a9565b60125461079f9061010090046001600160a01b031681565b6103fd7f6ee315d4faf1b0c431d0ecf2a43a011e467519ee93e96ae9adec9f0a251fe81081565b6103fd60175481565b6103fd610866366004614b9f565b612246565b600e546104239060ff1681565b610446612301565b61061861088e366004614b9f565b612324565b6104b16108a1366004614b9f565b6123f6565b600b546104239060ff1681565b6104466108c1366004615249565b6124d1565b6104466108d43660046155fb565b6124f6565b6104466108e7366004615631565b6125c4565b6104236108fa3660046155d1565b6001600160a01b03918216600090815260016020908152604080832093909416825291909152205460ff1690565b610446610936366004615665565b612746565b6103fd7f4554a81dfdf3a5f2ea0172098a3ce8d56e9fe380995cb3f1853c4bae99f358af81565b6012546104239060ff1681565b60006001600160a01b0383166109df5760405162461bcd60e51b815260206004820152602a60248201527f455243313135353a2061646472657373207a65726f206973206e6f742061207660448201526930b634b21037bbb732b960b11b60648201526084015b60405180910390fd5b6109e882612a59565b8015610a17575060008281526003602090815260408083206001600160a01b038716845290915290205460ff16155b8015610a32575060008281526005602052604090205460ff16155b8015610a435750610a438383611684565b15610a5957610a528383612a72565b9050610a7c565b506000818152602081815260408083206001600160a01b03861684529091529020545b92915050565b6000610a7c82612bbc565b610a95612be1565b6000610aa081612c2e565b610aaa8383612c38565b505050565b6060808083610ae75760405180604001604052806005815260200164434c41494d60d81b8152509150610ae0611861565b9050610be7565b6000806000610af587611a31565b925092509250610b0483612cf2565b6009831115610b225760405180602001604052806000815250610b3d565b604051806040016040528060018152602001600360fc1b8152505b610b4684612cf2565b6009841115610b645760405180602001604052806000815250610b7f565b604051806040016040528060018152602001600360fc1b8152505b610b8885612cf2565b604051602001610b9c9594939291906156c9565b6040516020818303038152906040529450610bb687611d3a565b8015610bc457508660175410155b15610bd857610bd1611861565b9350610be3565b610be0610cd2565b93505b5050505b8082610bf286612cf2565b604051602001610c0493929190615734565b60405160208183030381529060405292505050919050565b7fdd324c025d24345c952a385e64904e69a6fb709416adae66728d9cee78148244610c4681612c2e565b610aaa8360008460405180602001604052806000815250612df2565b6000610c6d81612c2e565b60185460ff1615610c7d57600080fd5b610c8c88888888888888612f15565b5050505050505050565b610c9e612be1565b6000610ca981612c2e565b50601880546001600160a01b0390921661010002610100600160a81b0319909216919091179055565b606060168054610ce190615796565b80601f0160208091040260200160405190810160405280929190818152602001828054610d0d90615796565b8015610d5a5780601f10610d2f57610100808354040283529160200191610d5a565b820191906000526020600020905b815481529060010190602001808311610d3d57829003601f168201915b5050505050905090565b6007805460609190610d78906001906157e6565b81548110610d8857610d886157fd565b90600052602060002001805480602002602001604051908101604052809291908181526020018280548015610d5a57602002820191906000526020600020905b81546001600160a01b03168152600190910190602001808311610dc8575050505050905090565b60405163052cb5b760e21b815260048101849052602481018390526044810182905260009073__$73785166eb94af412e1735ba7ee7be91af$__906314b2d6dc90606401602060405180830381865af4158015610e50573d6000803e3d6000fd5b505050506040513d601f19601f82011682018060405250810190610e749190615813565b610eb05760405162461bcd60e51b815260206004820152600d60248201526c496e76616c696420646174652160981b60448201526064016109d6565b604051630fa7bbd960e11b815260048101859052602481018490526044810183905260009073__$73785166eb94af412e1735ba7ee7be91af$__90631f4f77b290606401602060405180830381865af4158015610f11573d6000803e3d6000fd5b505050506040513d601f19601f82011682018060405250810190610f359190615830565b905063630ff600811015610fa45760405162461bcd60e51b815260206004820152603060248201527f496e76616c69642064617465212050726f6a656374207374617274656420536560448201526f7074656d62657220312c20323032322160801b60648201526084016109d6565b610fad8161348c565b95945050505050565b60008281526010602090815260408083208151808301909252546001600160a01b038116808352600160a01b9091046001600160601b031692820192909252829161102b575060408051808201909152600f546001600160a01b0381168252600160a01b90046001600160601b031660208201525b60208101516000906127109061104a906001600160601b031687615849565b611054919061587e565b915196919550909350505050565b600061106c6134b5565b85518751146110a65760405162461bcd60e51b81526004016109d690602080825260049082015263453a303160e01b604082015260600190565b84518751146110e05760405162461bcd60e51b81526004016109d690602080825260049082015263229d181960e11b604082015260600190565b835187511461111a5760405162461bcd60e51b81526004016109d690602080825260049082015263453a303360e01b604082015260600190565b81518351146111545760405162461bcd60e51b81526004016109d690602080825260049082015263114e8c0d60e21b604082015260600190565b81600081518110611167576111676157fd565b60200260200101516000146111a75760405162461bcd60e51b81526004016109d690602080825260049082015263453a303560e01b604082015260600190565b60015b825181101561123957826111bf6001836157e6565b815181106111cf576111cf6157fd565b60200260200101518382815181106111e9576111e96157fd565b6020026020010151116112275760405162461bcd60e51b81526004016109d690602080825260049082015263229d181b60e11b604082015260600190565b8061123181615892565b9150506111aa565b5060005b855181101561162c57600088828151811061125a5761125a6157fd565b602002602001015190506000888381518110611278576112786157fd565b602002602001015190506000888481518110611296576112966157fd565b6020026020010151905060008885815181106112b4576112b46157fd565b6020026020010151905080518251146112f85760405162461bcd60e51b81526004016109d690602080825260049082015263453a303760e01b604082015260600190565b60005b8251811015611614576000838281518110611318576113186157fd565b602002602001015190506000838381518110611336576113366157fd565b6020026020010151905061134982611d3a565b15156001146113835760405162461bcd60e51b81526004016109d690602080825260049082015263453a313160e01b604082015260600190565b60008281526005602052604090205460ff16156113cb5760405162461bcd60e51b81526004016109d690602080825260049082015263229d189960e11b604082015260600190565b6000828152602081815260408083206001600160a01b038b168452909152902054156114225760405162461bcd60e51b81526004016109d690602080825260049082015263453a313360e01b604082015260600190565b6000828152602081815260408083206001600160a01b038a168452909152902054156114795760405162461bcd60e51b81526004016109d690602080825260049082015263114e8c4d60e21b604082015260600190565b80611484888461096f565b10156114bb5760405162461bcd60e51b81526004016109d69060208082526004908201526308a7460760e31b604082015260600190565b6114c58783611684565b6114fa5760405162461bcd60e51b81526004016109d690602080825260049082015263453a303960e01b604082015260600190565b600e5460ff161561153f57600d54821161153f5760405162461bcd60e51b81526004016109d690602080825260049082015263453a313560e01b604082015260600190565b600061154b8b84613503565b905060008c8281518110611561576115616157fd565b602002602001015190506000805b82518110156115c557896001600160a01b0316838281518110611594576115946157fd565b60200260200101516001600160a01b0316036115b357600191506115c5565b806115bd81615892565b91505061156f565b50806115fc5760405162461bcd60e51b81526004016109d6906020808252600490820152630453a31360e41b604082015260600190565b5050505050808061160c90615892565b9150506112fb565b5050505050808061162490615892565b91505061123d565b50868686868686600c54611648600b5460ff6101009091041690565b6000604051602001611662999897969594939291906158ab565b6040516020818303038152906040528051906020012090509695505050505050565b6000806116e160088054806020026020016040519081016040528092919081815260200182805480156116d657602002820191906000526020600020905b8154815260200190600101908083116116c2575b505050505084613503565b60009081526009602090815260408083206001600160a01b038816845290915290205460ff1691505092915050565b846001600160a01b038116331461172a5761172a33613550565b611737868686868661360f565b505050505050565b60008281526011602052604090206001015461175a81612c2e565b610aaa8383613654565b61176c612be1565b600061177781612c2e565b61178f601280546001600160a81b0319166001179055565b50565b600061179d826123f6565b90506117ac33600060016136da565b6117e3816000815181106117c2576117c26157fd565b6020026020010151338460016040518060200160405280600081525061386a565b5050565b6001600160a01b03811633146118575760405162461bcd60e51b815260206004820152602f60248201527f416363657373436f6e74726f6c3a2063616e206f6e6c792072656e6f756e636560448201526e103937b632b9903337b91039b2b63360891b60648201526084016109d6565b6117e382826139a2565b6015805460609190611875906001906157e6565b81548110611885576118856157fd565b906000526020600020018054610ce190615796565b6118a2612be1565b7f6ee315d4faf1b0c431d0ecf2a43a011e467519ee93e96ae9adec9f0a251fe8106118cc81612c2e565b60175482116119515760405162461bcd60e51b8152602060048201526044602482018190527f4572726f723a20546f6b656e4964206d757374206265206c6172676572207468908201527f616e206c617374546f6b656e49645769746856616c69645065726d616e656e746064820152632ab9349760e11b608482015260a4016109d6565b601580546001810182556000919091528351611994917f55f448fdea98c4d29eb340757ef0a66cd03dbb9538908a6a81d96026b71ec47501906020860190614920565b505060175550565b60138054606091906119b0906001906157e6565b815481106119c0576119c06157fd565b90600052602060002001805480602002602001604051908101604052809291908181526020018280548015610d5a57602002820191906000526020600020905b815481526020019060010190808311611a00575050505050905090565b6000611a2881612c2e565b6117e382613a09565b6000806000808411611a855760405162461bcd60e51b815260206004820152601f60248201527f4e6f2064617465206173736f636961746564207769746820636c61696d73210060448201526064016109d6565b6000611a9085613aff565b9050611a9b81613b27565b935093509350509193909250565b6000611ab481612c2e565b61178f613bb3565b7f4554a81dfdf3a5f2ea0172098a3ce8d56e9fe380995cb3f1853c4bae99f358af611ae681612c2e565b611af1848484613c06565b50505050565b611aff612be1565b6000611b0a81612c2e565b6117e382613c19565b6060806007600881805480602002602001604051908101604052809291908181526020016000905b82821015611bb157600084815260209081902083018054604080518285028101850190915281815292830182828015611b9d57602002820191906000526020600020905b81546001600160a01b03168152600190910190602001808311611b7f575b505050505081526020019060010190611b3b565b50505050915080805480602002602001604051908101604052809291908181526020018280548015611c0257602002820191906000526020600020905b815481526020019060010190808311611bee575b50505050509050915091509091565b60608151835114611c765760405162461bcd60e51b815260206004820152602960248201527f455243313135353a206163636f756e747320616e6420696473206c656e677468604482015268040dad2e6dac2e8c6d60bb1b60648201526084016109d6565b600083516001600160401b03811115611c9157611c91614c23565b604051908082528060200260200182016040528015611cba578160200160208202803683370190505b50905060005b8451811015611d3257611d05858281518110611cde57611cde6157fd565b6020026020010151858381518110611cf857611cf86157fd565b602002602001015161096f565b828281518110611d1757611d176157fd565b6020908102919091010152611d2b81615892565b9050611cc0565b509392505050565b6000611d4582612a59565b80610a7c575060008281526005602052604090205460ff16151560011492915050565b600b546060908190600090819060ff16611d83576000611d91565b600a54611d91906001615946565b90506000611d9d610d64565b90506000866001600160401b03811115611db957611db9614c23565b604051908082528060200260200182016040528015611de2578160200160208202803683370190505b509050600082516001600160401b03811115611e0057611e00614c23565b604051908082528060200260200182016040528015611e3357816020015b6060815260200190600190039081611e1e5790505b5090506000805b89821015611f8e576000611e4e8288615946565b60008181526005602052604090205490915060ff1615611e6e5750611f7c565b80858481518110611e8157611e816157fd565b60200260200101818152505060005b8651811015611f6c5783600003611f01578b6001600160401b03811115611eb957611eb9614c23565b604051908082528060200260200182016040528015611ee2578160200160208202803683370190505b50858281518110611ef557611ef56157fd565b60200260200101819052505b611f24878281518110611f1657611f166157fd565b602002602001015183612a72565b858281518110611f3657611f366157fd565b60200260200101518581518110611f4f57611f4f6157fd565b602090810291909101015280611f6481615892565b915050611e90565b50611f78600184615946565b9250505b80611f8681615892565b915050611e3a565b50600a54600b546006546000928692869289929160ff1690611fae613c8b565b604051602001611fc4979695949392919061595e565b60408051808303601f190181529190528051602090910120939a9299509297509095505050505050565b611ff6612be1565b600061200181612c2e565b611af1848484613cba565b60606015805480602002602001604051908101604052809291908181526020016000905b828210156120dc57838290600052602060002001805461204f90615796565b80601f016020809104026020016040519081016040528092919081815260200182805461207b90615796565b80156120c85780601f1061209d576101008083540402835291602001916120c8565b820191906000526020600020905b8154815290600101906020018083116120ab57829003601f168201915b505050505081526020019060010190612030565b50505050905090565b60006120f081612c2e565b61178f613d85565b612100612be1565b600061210b81612c2e565b50600090815260106020526040812055565b60009182526011602090815260408084206001600160a01b0393909316845291905290205460ff1690565b612150612be1565b7f6ee315d4faf1b0c431d0ecf2a43a011e467519ee93e96ae9adec9f0a251fe81061217a81612c2e565b8151610aaa906016906020850190614920565b612195612be1565b8161219f81613550565b610aaa8383613d91565b60006121b481612c2e565b60408051600280825260608201835260009260208301908036833701905050905083816000815181106121e9576121e96157fd565b60200260200101906001600160a01b031690816001600160a01b031681525050828160018151811061221d5761221d6157fd565b60200260200101906001600160a01b031690816001600160a01b031681525050611af181613d9c565b600061225182612a59565b801561226c575060008281526005602052604090205460ff16155b156122ee5760008061227d846123f6565b905060005b81518110156122cc576122ae8282815181106122a0576122a06157fd565b602002602001015186612a72565b6122b89084615946565b9250806122c481615892565b915050612282565b506000848152600460205260409020546122e690836159be565b949350505050565b5060009081526004602052604090205490565b612309612be1565b600061231481612c2e565b506018805460ff19166001179055565b6060600061238060148054806020026020016040519081016040528092919081815260200182805480156116d657602002820191906000526020600020908154815260200190600101908083116116c257505050505084613503565b905060138181548110612395576123956157fd565b906000526020600020018054806020026020016040519081016040528092919081815260200182805480156123e957602002820191906000526020600020905b8154815260200190600101908083116123d5575b5050505050915050919050565b6060600061245260088054806020026020016040519081016040528092919081815260200182805480156116d657602002820191906000526020600020908154815260200190600101908083116116c257505050505084613503565b905060078181548110612467576124676157fd565b906000526020600020018054806020026020016040519081016040528092919081815260200182805480156123e957602002820191906000526020600020905b81546001600160a01b031681526001909101906020018083116124a7575050505050915050919050565b6000828152601160205260409020600101546124ec81612c2e565b610aaa83836139a2565b60008160008151811061250b5761250b6157fd565b60200260200101519050600061253a8460008151811061252d5761252d6157fd565b60200260200101516123f6565b905060015b83518110156125815783818151811061255a5761255a6157fd565b60200260200101518361256d9190615946565b92508061257981615892565b91505061253f565b5061258e336000846136da565b611af1816000815181106125a4576125a46157fd565b602002602001015133868660405180602001604052806000815250613dad565b6125cc612be1565b7f4554a81dfdf3a5f2ea0172098a3ce8d56e9fe380995cb3f1853c4bae99f358af6125f681612c2e565b8151600214801561263b575081600181518110612615576126156157fd565b602002602001015182600081518110612630576126306157fd565b602002602001015111155b61264457600080fd5b6000600a5460016126559190615946565b6014805491925060009161266b906001906157e6565b8154811061267b5761267b6157fd565b906000526020600020015490508181036126d657601380548591906126a2906001906157e6565b815481106126b2576126b26157fd565b9060005260206000200190805190602001906126cf9291906149a4565b5050505050565b6014805460018181019092557fce6d7b5282bd9a3661ae061feed1dbda4e52ab073b1f9285be6e155d9c38d4ec0183905560138054918201815560005284516126cf917f66de8ffda797e3de9c05e8fc57b3bf0ec28a930d40b0d285d93c06501cf6a090019060208701906149a4565b846001600160a01b03811633146127605761276033613550565b6117378686868686613f90565b6060600061277c836002615849565b612787906002615946565b6001600160401b0381111561279e5761279e614c23565b6040519080825280601f01601f1916602001820160405280156127c8576020820181803683370190505b509050600360fc1b816000815181106127e3576127e36157fd565b60200101906001600160f81b031916908160001a905350600f60fb1b81600181518110612812576128126157fd565b60200101906001600160f81b031916908160001a9053506000612836846002615849565b612841906001615946565b90505b60018111156128b9576f181899199a1a9b1b9c1cb0b131b232b360811b85600f1660108110612875576128756157fd565b1a60f81b82828151811061288b5761288b6157fd565b60200101906001600160f81b031916908160001a90535060049490941c936128b2816159ff565b9050612844565b5083156129085760405162461bcd60e51b815260206004820181905260248201527f537472696e67733a20686578206c656e67746820696e73756666696369656e7460448201526064016109d6565b9392505050565b60005b8351811015612a4457600084828151811061292f5761292f6157fd565b6020026020010151905060006001600160a01b0316876001600160a01b0316036129cf5761295c81611d3a565b61298d576000818152600560205260408120805460ff19166001179055600680549161298783615892565b91905055505b83828151811061299f5761299f6157fd565b60200260200101516004600083815260200190815260200160002060008282546129c991906159be565b90915550505b6001600160a01b038616612a1f578382815181106129ef576129ef6157fd565b6020026020010151600460008381526020019081526020016000206000828254612a199190615a16565b90915550505b612a298782613fd5565b612a338682613fd5565b50612a3d81615892565b9050612912565b50611737565b6001600160a01b03163b151590565b600b5460009060ff168015610a7c575050600a54101590565b600080612a7e836123f6565b905080600081518110612a9357612a936157fd565b60200260200101516001600160a01b0316846001600160a01b031603612b75576000612abe84612324565b9050600081600081518110612ad557612ad56157fd565b602002602001015182600081518110612af057612af06157fd565b602002602001015183600181518110612b0b57612b0b6157fd565b6020026020010151612b1d91906157e6565b612b28906001615946565b863085604051602001612b3d93929190615a55565b6040516020818303038152906040528051906020012060001c612b609190615a7f565b612b6a9190615946565b9350610a7c92505050565b80600181518110612b8857612b886157fd565b60200260200101516001600160a01b0316846001600160a01b031603612bb2576001915050610a7c565b5060009392505050565b60006001600160e01b03198216637965db0b60e01b1480610a7c5750610a7c826140ad565b600b54610100900460ff1615612c2c5760405162461bcd60e51b815260206004820152601060248201526f14185d5cd8589b194e881c185d5cd95960821b60448201526064016109d6565b565b61178f81336140d2565b6127106001600160601b0382161115612c635760405162461bcd60e51b81526004016109d690615a93565b6001600160a01b038216612cb95760405162461bcd60e51b815260206004820152601960248201527f455243323938313a20696e76616c69642072656365697665720000000000000060448201526064016109d6565b604080518082019091526001600160a01b039092168083526001600160601b039091166020909201829052600160a01b90910217600f55565b606081600003612d195750506040805180820190915260018152600360fc1b602082015290565b8160005b8115612d435780612d2d81615892565b9150612d3c9050600a8361587e565b9150612d1d565b6000816001600160401b03811115612d5d57612d5d614c23565b6040519080825280601f01601f191660200182016040528015612d87576020820181803683370190505b5090505b84156122e657612d9c6001836157e6565b9150612da9600a86615a7f565b612db4906030615946565b60f81b818381518110612dc957612dc96157fd565b60200101906001600160f81b031916908160001a905350612deb600a8661587e565b9450612d8b565b6001600160a01b038416612e525760405162461bcd60e51b815260206004820152602160248201527f455243313135353a206d696e7420746f20746865207a65726f206164647265736044820152607360f81b60648201526084016109d6565b336000612e5e85614136565b90506000612e6b85614136565b9050612e7c83600089858589614181565b6000868152602081815260408083206001600160a01b038b16845290915281208054879290612eac908490615946565b909155505060408051878152602081018790526001600160a01b03808a1692600092918716917fc3d58168c5ae7397731d063d5bbf3d657854427343f4c083240f7aacaa2d0f62910160405180910390a4612f0c83600089898989614197565b50505050505050565b612f1d6134b5565b6000878787878787600c54612f3a600b5460ff6101009091041690565b6000604051602001612f54999897969594939291906158ab565b6040516020818303038152906040528051906020012090508082146040518060600160405280603a8152602001615ead603a913990612fa65760405162461bcd60e51b81526004016109d69190614c10565b5060006007805480602002602001604051908101604052809291908181526020016000905b828210156130415760008481526020908190208301805460408051828502810185019091528181529283018282801561302d57602002820191906000526020600020905b81546001600160a01b0316815260019091019060200180831161300f575b505050505081526020019060010190612fcb565b50505050905060006130a5600880548060200260200160405190810160405280929190818152602001828054801561309857602002820191906000526020600020905b815481526020019060010190808311613084575b5050505050600d54613503565b905060006130b586600d54613503565b90508181146040518060600160405280602b8152602001615f0d602b9139906130f15760405162461bcd60e51b81526004016109d69190614c10565b5060005b83518110156132805760005b848281518110613113576131136157fd565b60200260200101515181101561326d57600e5460ff16158061313457508382115b156131a957600960008381526020019081526020016000206000868481518110613160576131606157fd565b60200260200101518381518110613179576131796157fd565b6020908102919091018101516001600160a01b03168252810191909152604001600020805460ff1916905561325b565b8882815181106131bb576131bb6157fd565b602002602001015181815181106131d4576131d46157fd565b60200260200101516001600160a01b03168583815181106131f7576131f76157fd565b60200260200101518281518110613210576132106157fd565b60200260200101516001600160a01b0316146040518060600160405280602b8152602001615f0d602b9139906132595760405162461bcd60e51b81526004016109d69190614c10565b505b8061326581615892565b915050613101565b508061327881615892565b9150506130f5565b5060005b875181101561336c5760005b8882815181106132a2576132a26157fd565b60200260200101515181101561335957600e5460ff1615806132c357508382115b156133475760008281526009602052604081208a51600192908c90869081106132ee576132ee6157fd565b60200260200101518481518110613307576133076157fd565b60200260200101516001600160a01b03166001600160a01b0316815260200190815260200160002060006101000a81548160ff0219169083151502179055505b8061335181615892565b915050613290565b508061336481615892565b915050613284565b5086516133809060079060208a01906149de565b5085516133949060089060208901906149a4565b5061339d613bb3565b60005b8a51811015613476578a81815181106133bb576133bb6157fd565b60200260200101516001600160a01b03168c82815181106133de576133de6157fd565b60200260200101516001600160a01b0316336001600160a01b03167f4a39dc06d4c0dbc64b70af90fd698a233a518aa5d07e595d983b8c0526c8f7fb8d858151811061342c5761342c6157fd565b60200260200101518d8681518110613446576134466157fd565b602002602001015160405161345c929190615add565b60405180910390a48061346e81615892565b9150506133a0565b5061347f6142f2565b5050505050505050505050565b6000620151806134a063630ff600846157e6565b6134aa919061587e565b610a7c906001615946565b600b54610100900460ff16612c2c5760405162461bcd60e51b815260206004820152601460248201527314185d5cd8589b194e881b9bdd081c185d5cd95960621b60448201526064016109d6565b6000806001845161351491906157e6565b90505b838181518110613529576135296157fd565b6020026020010151831061353e579050610a7c565b80613548816159ff565b915050613517565b60125461010090046001600160a01b0316158015906135e65750601254604051633185c44d60e21b81523060048201526001600160a01b0383811660248301526101009092049091169063c617113490604401602060405180830381865afa1580156135c0573d6000803e3d6000fd5b505050506040513d601f19601f820116820180604052508101906135e49190615813565b155b1561178f57604051633b79c77360e21b81526001600160a01b03821660048201526024016109d6565b6001600160a01b03851633148061362b575061362b85336108fa565b6136475760405162461bcd60e51b81526004016109d690615af0565b6126cf8585858585613dad565b61365e828261211d565b6117e35760008281526011602090815260408083206001600160a01b03851684529091529020805460ff191660011790556136963390565b6001600160a01b0316816001600160a01b0316837f2f8788117e7eff1d82e926ec794901d17c78024a50270940304540a733656f0d60405160405180910390a45050565b6001600160a01b03831661373c5760405162461bcd60e51b815260206004820152602360248201527f455243313135353a206275726e2066726f6d20746865207a65726f206164647260448201526265737360e81b60648201526084016109d6565b33600061374884614136565b9050600061375584614136565b905061377583876000858560405180602001604052806000815250614181565b6000858152602081815260408083206001600160a01b038a168452909152902054848110156137f25760405162461bcd60e51b8152602060048201526024808201527f455243313135353a206275726e20616d6f756e7420657863656564732062616c604482015263616e636560e01b60648201526084016109d6565b6000868152602081815260408083206001600160a01b038b81168086529184528285208a8703905582518b81529384018a90529092908816917fc3d58168c5ae7397731d063d5bbf3d657854427343f4c083240f7aacaa2d0f62910160405180910390a4604080516020810190915260009052612f0c565b6001600160a01b0384166138905760405162461bcd60e51b81526004016109d690615b3f565b33600061389c85614136565b905060006138a985614136565b90506138b9838989858589614181565b6000868152602081815260408083206001600160a01b038c168452909152902054858110156138fa5760405162461bcd60e51b81526004016109d690615b84565b6000878152602081815260408083206001600160a01b038d8116855292528083208985039055908a16825281208054889290613937908490615946565b909155505060408051888152602081018890526001600160a01b03808b16928c821692918816917fc3d58168c5ae7397731d063d5bbf3d657854427343f4c083240f7aacaa2d0f62910160405180910390a4613997848a8a8a8a8a614197565b505050505050505050565b6139ac828261211d565b156117e35760008281526011602090815260408083206001600160a01b0385168085529252808320805460ff1916905551339285917ff6391f5c32d9c69d2a47ea670b442974b53935d1edc7fd64eb21e047a839171b9190a45050565b613a11612be1565b600d548111613a625760405162461bcd60e51b815260206004820152601c60248201527f4572726f723a20546f6b656e7320616c7265616479206c6f636b65640000000060448201526064016109d6565b600b5460ff168015613a765750600a548111155b613ae05760405162461bcd60e51b815260206004820152603560248201527f4572726f723a2043616e2774206c6f636b20696e697469616c20686f6c646572604482015274399037b3103ab736b4b73a32b2103a37b5b2b7399760591b60648201526084016109d6565b600d819055600e5460ff1661178f57600e805460ff1916600117905550565b6000613b0c6001836157e6565b613b199062015180615849565b610a7c9063630ff600615946565b600080600073__$73785166eb94af412e1735ba7ee7be91af$__63de5101af856040518263ffffffff1660e01b8152600401613b6591815260200190565b606060405180830381865af4158015613b82573d6000803e3d6000fd5b505050506040513d601f19601f82011682018060405250810190613ba69190615bce565b9250925092509193909250565b613bbb6134b5565b600b805461ff00191690557f5db9ee0a495bf2e6ff9c91a7834c1ba4fdd244a5e8aa4e537bd38aeae4b073aa335b6040516001600160a01b03909116815260200160405180910390a1565b613c0e612be1565b610aaa838383614331565b60125460ff1615613c635760405162461bcd60e51b815260206004820152601460248201527314195c9b585b995b9d1b1e48191a5cd8589b195960621b60448201526064016109d6565b601280546001600160a01b0390921661010002610100600160a81b0319909216919091179055565b60006013604051602001613c9f9190615bfc565b60405160208183030381529060405280519060200120905090565b6127106001600160601b0382161115613ce55760405162461bcd60e51b81526004016109d690615a93565b6001600160a01b038216613d3b5760405162461bcd60e51b815260206004820152601b60248201527f455243323938313a20496e76616c696420706172616d6574657273000000000060448201526064016109d6565b6040805180820182526001600160a01b0393841681526001600160601b0392831660208083019182526000968752601090529190942093519051909116600160a01b029116179055565b42600c55612c2c6142f2565b6117e33383836144bb565b613da4612be1565b61178f8161459b565b8151835114613e0f5760405162461bcd60e51b815260206004820152602860248201527f455243313135353a2069647320616e6420616d6f756e7473206c656e677468206044820152670dad2e6dac2e8c6d60c31b60648201526084016109d6565b6001600160a01b038416613e355760405162461bcd60e51b81526004016109d690615b3f565b33613e44818787878787614181565b60005b8451811015613f2a576000858281518110613e6457613e646157fd565b602002602001015190506000858381518110613e8257613e826157fd565b602090810291909101810151600084815280835260408082206001600160a01b038e168352909352919091205490915081811015613ed25760405162461bcd60e51b81526004016109d690615b84565b6000838152602081815260408083206001600160a01b038e8116855292528083208585039055908b16825281208054849290613f0f908490615946565b9250508190555050505080613f2390615892565b9050613e47565b50846001600160a01b0316866001600160a01b0316826001600160a01b03167f4a39dc06d4c0dbc64b70af90fd698a233a518aa5d07e595d983b8c0526c8f7fb8787604051613f7a929190615add565b60405180910390a4611737818787878787614815565b6001600160a01b038516331480613fac5750613fac85336108fa565b613fc85760405162461bcd60e51b81526004016109d690615af0565b6126cf858585858561386a565b6001600160a01b03821615801590613ff15750613ff181612a59565b8015614020575060008181526003602090815260408083206001600160a01b038616845290915290205460ff16155b801561403b575060008181526005602052604090205460ff16155b801561404c575061404c8282611684565b156117e357600061405d8383612a72565b90508015610aaa5760008281526003602090815260408083206001600160a01b038716808552908352818420805460ff191660011790558584528383528184209084529091529020819055505050565b60006001600160e01b0319821663152a902d60e11b1480610a7c5750610a7c826148d0565b6140dc828261211d565b6117e3576140f4816001600160a01b0316601461276d565b6140ff83602061276d565b604051602001614110929190615c8a565b60408051601f198184030181529082905262461bcd60e51b82526109d691600401614c10565b60408051600180825281830190925260609160009190602080830190803683370190505090508281600081518110614170576141706157fd565b602090810291909101015292915050565b614189612be1565b61173786868686868661290f565b6001600160a01b0384163b156117375760405163f23a6e6160e01b81526001600160a01b0385169063f23a6e61906141db9089908990889088908890600401615cff565b6020604051808303816000875af1925050508015614216575060408051601f3d908101601f1916820190925261421391810190615d44565b60015b6142c257614222615d61565b806308c379a00361425b5750614236615d7d565b80614241575061425d565b8060405162461bcd60e51b81526004016109d69190614c10565b505b60405162461bcd60e51b815260206004820152603460248201527f455243313135353a207472616e7366657220746f206e6f6e20455243313135356044820152732932b1b2b4bb32b91034b6b83632b6b2b73a32b960611b60648201526084016109d6565b6001600160e01b0319811663f23a6e6160e01b14612f0c5760405162461bcd60e51b81526004016109d690615e06565b6142fa612be1565b600b805461ff0019166101001790557f62e78cea01bee320cd4e420270b5ea74000d11b0c9f74754ebdbfc544b05a258613be93390565b600061433b610d64565b90506000848483600a54600b60009054906101000a900460ff16600654614360613c8b565b604051602001614376979695949392919061595e565b604051602081830303815290604052805190602001209050808314604051806060016040528060268152602001615ee760269139906143c85760405162461bcd60e51b81526004016109d69190614c10565b5084600186516143d891906157e6565b815181106143e8576143e86157fd565b6020908102919091010151600a55600b5460ff16151560000361441357600b805460ff191660011790555b60005b825181101561173757828181518110614431576144316157fd565b60200260200101516001600160a01b031660006001600160a01b0316336001600160a01b03167f4a39dc06d4c0dbc64b70af90fd698a233a518aa5d07e595d983b8c0526c8f7fb8989868151811061448b5761448b6157fd565b60200260200101516040516144a1929190615add565b60405180910390a4806144b381615892565b915050614416565b816001600160a01b0316836001600160a01b03160361452e5760405162461bcd60e51b815260206004820152602960248201527f455243313135353a2073657474696e6720617070726f76616c20737461747573604482015268103337b91039b2b63360b91b60648201526084016109d6565b6001600160a01b03838116600081815260016020908152604080832094871680845294825291829020805460ff191686151590811790915591519182527f17307eab39ab6107e8899845ad3d59bd9653f200f220920489ca2b5937696c31910160405180910390a3505050565b600b5460009060ff166145af5760006145bd565b600a546145bd906001615946565b6007549091506000906145d2906001906157e6565b90506000600882815481106145e9576145e96157fd565b9060005260206000200154905082810361472057600060078281548110614612576146126157fd565b9060005260206000200180548060200260200160405190810160405280929190818152602001828054801561467057602002820191906000526020600020905b81546001600160a01b03168152600190910190602001808311614652575b50505050509050846007838154811061468b5761468b6157fd565b9060005260206000200190805190602001906146a8929190614a37565b5060005b8151811015614719576009600085815260200190815260200160002060008383815181106146dc576146dc6157fd565b6020908102919091018101516001600160a01b03168252810191909152604001600020805460ff191690558061471181615892565b9150506146ac565b505061479f565b6008805460018181019092557ff3f7a9fe364faab93b216da50a3214154f22a0a2b415b23a84c8169e8b636ee3018490556007805491820181556000528451614790917fa66cc928b5edb82af9bd49922954155ab7b0942694bea4ce44661d9a8736c68801906020870190614a37565b5061479c826001615946565b91505b60005b84518110156126cf5760008381526009602052604081208651600192908890859081106147d1576147d16157fd565b6020908102919091018101516001600160a01b03168252810191909152604001600020805460ff19169115159190911790558061480d81615892565b9150506147a2565b6001600160a01b0384163b156117375760405163bc197c8160e01b81526001600160a01b0385169063bc197c81906148599089908990889088908890600401615e4e565b6020604051808303816000875af1925050508015614894575060408051601f3d908101601f1916820190925261489191810190615d44565b60015b6148a057614222615d61565b6001600160e01b0319811663bc197c8160e01b14612f0c5760405162461bcd60e51b81526004016109d690615e06565b60006001600160e01b03198216636cdb3d1360e11b148061490157506001600160e01b031982166303a24d0760e21b145b80610a7c57506301ffc9a760e01b6001600160e01b0319831614610a7c565b82805461492c90615796565b90600052602060002090601f01602090048101928261494e5760008555614994565b82601f1061496757805160ff1916838001178555614994565b82800160010185558215614994579182015b82811115614994578251825591602001919060010190614979565b506149a0929150614a8c565b5090565b8280548282559060005260206000209081019282156149945791602002820182811115614994578251825591602001919060010190614979565b828054828255906000526020600020908101928215614a2b579160200282015b82811115614a2b5782518051614a1b918491602090910190614a37565b50916020019190600101906149fe565b506149a0929150614aa1565b828054828255906000526020600020908101928215614994579160200282015b8281111561499457825182546001600160a01b0319166001600160a01b03909116178255602090920191600190910190614a57565b5b808211156149a05760008155600101614a8d565b808211156149a0576000614ab58282614abe565b50600101614aa1565b508054600082559060005260206000209081019061178f9190614a8c565b80356001600160a01b0381168114614af357600080fd5b919050565b60008060408385031215614b0b57600080fd5b614b1483614adc565b946020939093013593505050565b6001600160e01b03198116811461178f57600080fd5b600060208284031215614b4a57600080fd5b813561290881614b22565b80356001600160601b0381168114614af357600080fd5b60008060408385031215614b7f57600080fd5b614b8883614adc565b9150614b9660208401614b55565b90509250929050565b600060208284031215614bb157600080fd5b5035919050565b60005b83811015614bd3578181015183820152602001614bbb565b83811115611af15750506000910152565b60008151808452614bfc816020860160208601614bb8565b601f01601f19169290920160200192915050565b6020815260006129086020830184614be4565b634e487b7160e01b600052604160045260246000fd5b601f8201601f191681016001600160401b0381118282101715614c5e57614c5e614c23565b6040525050565b60006001600160401b03821115614c7e57614c7e614c23565b5060051b60200190565b600082601f830112614c9957600080fd5b81356020614ca682614c65565b604051614cb38282614c39565b83815260059390931b8501820192828101915086841115614cd357600080fd5b8286015b84811015614cf557614ce881614adc565b8352918301918301614cd7565b509695505050505050565b600082601f830112614d1157600080fd5b81356020614d1e82614c65565b604051614d2b8282614c39565b83815260059390931b8501820192828101915086841115614d4b57600080fd5b8286015b84811015614cf55780358352918301918301614d4f565b600082601f830112614d7757600080fd5b81356020614d8482614c65565b604051614d918282614c39565b83815260059390931b8501820192828101915086841115614db157600080fd5b8286015b84811015614cf55780356001600160401b03811115614dd45760008081fd5b614de28986838b0101614d00565b845250918301918301614db5565b600082601f830112614e0157600080fd5b81356020614e0e82614c65565b604051614e1b8282614c39565b83815260059390931b8501820192828101915086841115614e3b57600080fd5b8286015b84811015614cf55780356001600160401b03811115614e5e5760008081fd5b614e6c8986838b0101614c88565b845250918301918301614e3f565b600080600080600080600060e0888a031215614e9557600080fd5b87356001600160401b0380821115614eac57600080fd5b614eb88b838c01614c88565b985060208a0135915080821115614ece57600080fd5b614eda8b838c01614c88565b975060408a0135915080821115614ef057600080fd5b614efc8b838c01614d66565b965060608a0135915080821115614f1257600080fd5b614f1e8b838c01614d66565b955060808a0135915080821115614f3457600080fd5b614f408b838c01614df0565b945060a08a0135915080821115614f5657600080fd5b50614f638a828b01614d00565b92505060c0880135905092959891949750929550565b600060208284031215614f8b57600080fd5b61290882614adc565b600081518084526020808501945080840160005b83811015614fcd5781516001600160a01b031687529582019590820190600101614fa8565b509495945050505050565b6020815260006129086020830184614f94565b60008060006060848603121561500057600080fd5b505081359360208301359350604090920135919050565b6000806040838503121561502a57600080fd5b50508035926020909101359150565b60008060008060008060c0878903121561505257600080fd5b86356001600160401b038082111561506957600080fd5b6150758a838b01614c88565b9750602089013591508082111561508b57600080fd5b6150978a838b01614c88565b965060408901359150808211156150ad57600080fd5b6150b98a838b01614d66565b955060608901359150808211156150cf57600080fd5b6150db8a838b01614d66565b945060808901359150808211156150f157600080fd5b6150fd8a838b01614df0565b935060a089013591508082111561511357600080fd5b5061512089828a01614d00565b9150509295509295509295565b600082601f83011261513e57600080fd5b81356001600160401b0381111561515757615157614c23565b60405161516e601f8301601f191660200182614c39565b81815284602083860101111561518357600080fd5b816020850160208301376000918101602001919091529392505050565b600080600080600060a086880312156151b857600080fd5b6151c186614adc565b94506151cf60208701614adc565b935060408601356001600160401b03808211156151eb57600080fd5b6151f789838a01614d00565b9450606088013591508082111561520d57600080fd5b61521989838a01614d00565b9350608088013591508082111561522f57600080fd5b5061523c8882890161512d565b9150509295509295909350565b6000806040838503121561525c57600080fd5b82359150614b9660208401614adc565b6000806040838503121561527f57600080fd5b82356001600160401b0381111561529557600080fd5b6152a18582860161512d565b95602094909401359450505050565b600081518084526020808501945080840160005b83811015614fcd578151875295820195908201906001016152c4565b60208152600061290860208301846152b0565b60008060006060848603121561530857600080fd5b83356001600160401b038082111561531f57600080fd5b61532b87838801614d00565b9450602086013591508082111561534157600080fd5b5061534e86828701614d66565b925050604084013590509250925092565b600081518084526020808501808196508360051b8101915082860160005b858110156153a7578284038952615395848351614f94565b9885019893509084019060010161537d565b5091979650505050505050565b6040815260006153c7604083018561535f565b8281036020840152610fad81856152b0565b600080604083850312156153ec57600080fd5b82356001600160401b038082111561540357600080fd5b61540f86838701614c88565b9350602085013591508082111561542557600080fd5b5061543285828601614d00565b9150509250929050565b600081518084526020808501808196508360051b8101915082860160005b858110156153a75782840389526154728483516152b0565b9885019893509084019060010161545a565b60608152600061549760608301866152b0565b82810360208401526154a9818661543c565b915050826040830152949350505050565b6000806000606084860312156154cf57600080fd5b833592506154df60208501614adc565b91506154ed60408501614b55565b90509250925092565b6000602080830181845280855180835260408601915060408160051b870101925083870160005b8281101561554b57603f19888603018452615539858351614be4565b9450928501929085019060010161551d565b5092979650505050505050565b60006020828403121561556a57600080fd5b81356001600160401b0381111561558057600080fd5b6122e68482850161512d565b801515811461178f57600080fd5b600080604083850312156155ad57600080fd5b6155b683614adc565b915060208301356155c68161558c565b809150509250929050565b600080604083850312156155e457600080fd5b6155ed83614adc565b9150614b9660208401614adc565b6000806040838503121561560e57600080fd5b82356001600160401b038082111561562557600080fd5b61540f86838701614d00565b60006020828403121561564357600080fd5b81356001600160401b0381111561565957600080fd5b6122e684828501614d00565b600080600080600060a0868803121561567d57600080fd5b61568686614adc565b945061569460208701614adc565b9350604086013592506060860135915060808601356001600160401b038111156156bd57600080fd5b61523c8882890161512d565b600086516156db818460208b01614bb8565b8651908301906156ef818360208b01614bb8565b8651910190615702818360208a01614bb8565b8551910190615715818360208901614bb8565b8451910190615728818360208801614bb8565b01979650505050505050565b60008451615746818460208901614bb8565b84519083019061575a818360208901614bb8565b602d60f81b91019081528351615777816001840160208801614bb8565b64173539b7b760d91b6001929091019182015260060195945050505050565b600181811c908216806157aa57607f821691505b6020821081036157ca57634e487b7160e01b600052602260045260246000fd5b50919050565b634e487b7160e01b600052601160045260246000fd5b6000828210156157f8576157f86157d0565b500390565b634e487b7160e01b600052603260045260246000fd5b60006020828403121561582557600080fd5b81516129088161558c565b60006020828403121561584257600080fd5b5051919050565b6000816000190483118215151615615863576158636157d0565b500290565b634e487b7160e01b600052601260045260246000fd5b60008261588d5761588d615868565b500490565b6000600182016158a4576158a46157d0565b5060010190565b60006101208083526158bf8184018d614f94565b905082810360208401526158d3818c614f94565b905082810360408401526158e7818b61543c565b905082810360608401526158fb818a61543c565b9050828103608084015261590f818961535f565b905082810360a084015261592381886152b0565b60c0840196909652505091151560e0830152610100909101529695505050505050565b60008219821115615959576159596157d0565b500190565b60e08152600061597160e083018a6152b0565b8281036020840152615983818a61543c565b905082810360408401526159978189614f94565b60608401979097525050921515608084015260a083019190915260c0909101529392505050565b600080821280156001600160ff1b03849003851316156159e0576159e06157d0565b600160ff1b83900384128116156159f9576159f96157d0565b50500190565b600081615a0e57615a0e6157d0565b506000190190565b60008083128015600160ff1b850184121615615a3457615a346157d0565b6001600160ff1b0384018313811615615a4f57615a4f6157d0565b50500390565b8381526001600160a01b0383166020820152606060408201819052600090610fad908301846152b0565b600082615a8e57615a8e615868565b500690565b6020808252602a908201527f455243323938313a20726f79616c7479206665652077696c6c206578636565646040820152692073616c65507269636560b01b606082015260800190565b6040815260006153c760408301856152b0565b6020808252602f908201527f455243313135353a2063616c6c6572206973206e6f7420746f6b656e206f776e60408201526e195c881b9bdc88185c1c1c9bdd9959608a1b606082015260800190565b60208082526025908201527f455243313135353a207472616e7366657220746f20746865207a65726f206164604082015264647265737360d81b606082015260800190565b6020808252602a908201527f455243313135353a20696e73756666696369656e742062616c616e636520666f60408201526939103a3930b739b332b960b11b606082015260800190565b600080600060608486031215615be357600080fd5b8351925060208401519150604084015190509250925092565b6000602080830181845280855480835260408601915060408160051b87010192506000878152848120815b83811015615c7c57888603603f1901855281548087528284528784208888019190855b82811015615c665781548452928a019260019182019101615c4a565b5091975050509386019360019182019101615c27565b509398975050505050505050565b7f416363657373436f6e74726f6c3a206163636f756e7420000000000000000000815260008351615cc2816017850160208801614bb8565b7001034b99036b4b9b9b4b733903937b6329607d1b6017918401918201528351615cf3816028840160208801614bb8565b01602801949350505050565b6001600160a01b03868116825285166020820152604081018490526060810183905260a060808201819052600090615d3990830184614be4565b979650505050505050565b600060208284031215615d5657600080fd5b815161290881614b22565b600060033d1115615d7a5760046000803e5060005160e01c5b90565b600060443d1015615d8b5790565b6040516003193d81016004833e81513d6001600160401b038160248401118184111715615dba57505050505090565b8285019150815181811115615dd25750505050505090565b843d8701016020828501011115615dec5750505050505090565b615dfb60208286010187614c39565b509095945050505050565b60208082526028908201527f455243313135353a204552433131353552656365697665722072656a656374656040820152676420746f6b656e7360c01b606082015260800190565b6001600160a01b0386811682528516602082015260a060408201819052600090615e7a908301866152b0565b8281036060840152615e8c81866152b0565b90508281036080840152615ea08185614be4565b9897505050505050505056fe496e76616c696420696e7075742e20557365205f766572696679557064617465496e697469616c486f6c64657252616e6765496e70757428292e496e76616c696420696e7075742e20557365206765744d696e7452616e6765496e70757428294572726f723a2043616e277420757064617465206c6f636b656420696e697469616c20686f6c646572732ea2646970667358221220f1934a7d4b60d96c08a0020e1d4be83df024ee0459a80349180d5edd8c2ca4f664736f6c634300080d0033dd324c025d24345c952a385e64904e69a6fb709416adae66728d9cee78148244",
  "linkReferences": {
    "contracts/DateTime.sol": {
      "DateTime": [
        {
          "length": 20,
          "start": 10380
        },
        {
          "length": 20,
          "start": 10573
        },
        {
          "length": 20,
          "start": 21924
        }
      ]
    }
  },
  "deployedLinkReferences": {
    "contracts/DateTime.sol": {
      "DateTime": [
        {
          "length": 20,
          "start": 3606
        },
        {
          "length": 20,
          "start": 3799
        },
        {
          "length": 20,
          "start": 15150
        }
      ]
    }
  }
}